{
	"contracts/TodoList.sol": {
		"TodoList": {
			"abi": [
				{
					"anonymous": false,
					"inputs": [
						{
							"indexed": false,
							"internalType": "uint256",
							"name": "id",
							"type": "uint256"
						},
						{
							"indexed": true,
							"internalType": "address",
							"name": "owner",
							"type": "address"
						},
						{
							"indexed": true,
							"internalType": "string",
							"name": "text",
							"type": "string"
						},
						{
							"indexed": true,
							"internalType": "uint256",
							"name": "timestamp",
							"type": "uint256"
						}
					],
					"name": "CreteEvent",
					"type": "event"
				},
				{
					"anonymous": false,
					"inputs": [
						{
							"indexed": true,
							"internalType": "uint256",
							"name": "id",
							"type": "uint256"
						},
						{
							"indexed": true,
							"internalType": "address",
							"name": "owner",
							"type": "address"
						},
						{
							"indexed": true,
							"internalType": "uint256",
							"name": "timestamp",
							"type": "uint256"
						}
					],
					"name": "RemoveEvent",
					"type": "event"
				},
				{
					"anonymous": false,
					"inputs": [
						{
							"indexed": false,
							"internalType": "uint256",
							"name": "id",
							"type": "uint256"
						},
						{
							"indexed": true,
							"internalType": "address",
							"name": "owner",
							"type": "address"
						},
						{
							"indexed": true,
							"internalType": "string",
							"name": "text",
							"type": "string"
						},
						{
							"indexed": true,
							"internalType": "uint256",
							"name": "updated",
							"type": "uint256"
						}
					],
					"name": "UpdateEvent",
					"type": "event"
				},
				{
					"inputs": [
						{
							"internalType": "string",
							"name": "_text",
							"type": "string"
						}
					],
					"name": "createTodo",
					"outputs": [],
					"stateMutability": "nonpayable",
					"type": "function"
				},
				{
					"inputs": [],
					"name": "getTodos",
					"outputs": [
						{
							"components": [
								{
									"internalType": "uint256",
									"name": "id",
									"type": "uint256"
								},
								{
									"internalType": "address",
									"name": "owner",
									"type": "address"
								},
								{
									"internalType": "string",
									"name": "text",
									"type": "string"
								},
								{
									"internalType": "bool",
									"name": "completed",
									"type": "bool"
								},
								{
									"internalType": "uint256",
									"name": "timestamp",
									"type": "uint256"
								},
								{
									"internalType": "uint256",
									"name": "updated",
									"type": "uint256"
								}
							],
							"internalType": "struct TodoList.Todo[]",
							"name": "",
							"type": "tuple[]"
						}
					],
					"stateMutability": "view",
					"type": "function"
				},
				{
					"inputs": [
						{
							"internalType": "uint256",
							"name": "_id",
							"type": "uint256"
						}
					],
					"name": "removeTodo",
					"outputs": [],
					"stateMutability": "nonpayable",
					"type": "function"
				},
				{
					"inputs": [
						{
							"internalType": "uint256",
							"name": "",
							"type": "uint256"
						}
					],
					"name": "todos",
					"outputs": [
						{
							"internalType": "uint256",
							"name": "id",
							"type": "uint256"
						},
						{
							"internalType": "address",
							"name": "owner",
							"type": "address"
						},
						{
							"internalType": "string",
							"name": "text",
							"type": "string"
						},
						{
							"internalType": "bool",
							"name": "completed",
							"type": "bool"
						},
						{
							"internalType": "uint256",
							"name": "timestamp",
							"type": "uint256"
						},
						{
							"internalType": "uint256",
							"name": "updated",
							"type": "uint256"
						}
					],
					"stateMutability": "view",
					"type": "function"
				},
				{
					"inputs": [
						{
							"internalType": "uint256",
							"name": "_id",
							"type": "uint256"
						}
					],
					"name": "toggleComplete",
					"outputs": [],
					"stateMutability": "nonpayable",
					"type": "function"
				},
				{
					"inputs": [
						{
							"internalType": "uint256",
							"name": "_id",
							"type": "uint256"
						},
						{
							"internalType": "string",
							"name": "_text",
							"type": "string"
						}
					],
					"name": "updateTodo",
					"outputs": [],
					"stateMutability": "nonpayable",
					"type": "function"
				}
			],
			"devdoc": {
				"kind": "dev",
				"methods": {},
				"version": 1
			},
			"evm": {
				"assembly": "    /* \"contracts/TodoList.sol\":56:2900  contract TodoList {... */\n  mstore(0x40, 0x80)\n  callvalue\n  dup1\n  iszero\n  tag_1\n  jumpi\n  0x00\n  dup1\n  revert\ntag_1:\n  pop\n  dataSize(sub_0)\n  dup1\n  dataOffset(sub_0)\n  0x00\n  codecopy\n  0x00\n  return\nstop\n\nsub_0: assembly {\n        /* \"contracts/TodoList.sol\":56:2900  contract TodoList {... */\n      mstore(0x40, 0x80)\n      callvalue\n      dup1\n      iszero\n      tag_1\n      jumpi\n      0x00\n      dup1\n      revert\n    tag_1:\n      pop\n      jumpi(tag_2, lt(calldatasize, 0x04))\n      shr(0xe0, calldataload(0x00))\n      dup1\n      0x0951e5bd\n      eq\n      tag_3\n      jumpi\n      dup1\n      0x3be3d703\n      eq\n      tag_4\n      jumpi\n      dup1\n      0xbc8bc2b4\n      eq\n      tag_5\n      jumpi\n      dup1\n      0xc33926cb\n      eq\n      tag_6\n      jumpi\n      dup1\n      0xd534ee88\n      eq\n      tag_7\n      jumpi\n      dup1\n      0xe34f1221\n      eq\n      tag_8\n      jumpi\n    tag_2:\n      0x00\n      dup1\n      revert\n        /* \"contracts/TodoList.sol\":2114:2271  function toggleComplete(uint256 _id) external {... */\n    tag_3:\n      tag_9\n      0x04\n      dup1\n      calldatasize\n      sub\n      dup2\n      add\n      swap1\n      tag_10\n      swap2\n      swap1\n      tag_11\n      jump\t// in\n    tag_10:\n      tag_12\n      jump\t// in\n    tag_9:\n      stop\n        /* \"contracts/TodoList.sol\":2671:2898  function removeTodo(uint256 _id) external {... */\n    tag_4:\n      tag_13\n      0x04\n      dup1\n      calldatasize\n      sub\n      dup2\n      add\n      swap1\n      tag_14\n      swap2\n      swap1\n      tag_11\n      jump\t// in\n    tag_14:\n      tag_15\n      jump\t// in\n    tag_13:\n      stop\n        /* \"contracts/TodoList.sol\":654:673  Todo[] public todos */\n    tag_5:\n      tag_16\n      0x04\n      dup1\n      calldatasize\n      sub\n      dup2\n      add\n      swap1\n      tag_17\n      swap2\n      swap1\n      tag_11\n      jump\t// in\n    tag_17:\n      tag_18\n      jump\t// in\n    tag_16:\n      mload(0x40)\n      tag_19\n      swap7\n      swap6\n      swap5\n      swap4\n      swap3\n      swap2\n      swap1\n      tag_20\n      jump\t// in\n    tag_19:\n      mload(0x40)\n      dup1\n      swap2\n      sub\n      swap1\n      return\n        /* \"contracts/TodoList.sol\":1427:2108  function getTodos() public view returns (Todo[] memory) {... */\n    tag_6:\n      tag_21\n      tag_22\n      jump\t// in\n    tag_21:\n      mload(0x40)\n      tag_23\n      swap2\n      swap1\n      tag_24\n      jump\t// in\n    tag_23:\n      mload(0x40)\n      dup1\n      swap2\n      sub\n      swap1\n      return\n        /* \"contracts/TodoList.sol\":1151:1421  function updateTodo(uint256 _id, string memory _text) external {... */\n    tag_7:\n      tag_25\n      0x04\n      dup1\n      calldatasize\n      sub\n      dup2\n      add\n      swap1\n      tag_26\n      swap2\n      swap1\n      tag_27\n      jump\t// in\n    tag_26:\n      tag_28\n      jump\t// in\n    tag_25:\n      stop\n        /* \"contracts/TodoList.sol\":742:1145  function createTodo(string memory _text) external {... */\n    tag_8:\n      tag_29\n      0x04\n      dup1\n      calldatasize\n      sub\n      dup2\n      add\n      swap1\n      tag_30\n      swap2\n      swap1\n      tag_31\n      jump\t// in\n    tag_30:\n      tag_32\n      jump\t// in\n    tag_29:\n      stop\n        /* \"contracts/TodoList.sol\":2114:2271  function toggleComplete(uint256 _id) external {... */\n    tag_12:\n        /* \"contracts/TodoList.sol\":2173:2186  uint256 index */\n      0x00\n        /* \"contracts/TodoList.sol\":2190:2206  getTodoById(_id) */\n      tag_34\n        /* \"contracts/TodoList.sol\":2202:2205  _id */\n      dup3\n        /* \"contracts/TodoList.sol\":2190:2201  getTodoById */\n      tag_35\n        /* \"contracts/TodoList.sol\":2190:2206  getTodoById(_id) */\n      jump\t// in\n    tag_34:\n        /* \"contracts/TodoList.sol\":2170:2206  (, uint256 index) = getTodoById(_id) */\n      swap2\n      pop\n      pop\n        /* \"contracts/TodoList.sol\":2242:2247  todos */\n      0x00\n        /* \"contracts/TodoList.sol\":2248:2253  index */\n      dup2\n        /* \"contracts/TodoList.sol\":2242:2254  todos[index] */\n      dup2\n      sload\n      dup2\n      lt\n      tag_36\n      jumpi\n      tag_37\n      tag_38\n      jump\t// in\n    tag_37:\n    tag_36:\n      swap1\n      0x00\n      mstore\n      keccak256(0x00, 0x20)\n      swap1\n      0x06\n      mul\n      add\n        /* \"contracts/TodoList.sol\":2242:2264  todos[index].completed */\n      0x03\n      add\n      0x00\n      swap1\n      sload\n      swap1\n      0x0100\n      exp\n      swap1\n      div\n      0xff\n      and\n        /* \"contracts/TodoList.sol\":2241:2264  !todos[index].completed */\n      iszero\n        /* \"contracts/TodoList.sol\":2216:2221  todos */\n      0x00\n        /* \"contracts/TodoList.sol\":2222:2227  index */\n      dup3\n        /* \"contracts/TodoList.sol\":2216:2228  todos[index] */\n      dup2\n      sload\n      dup2\n      lt\n      tag_40\n      jumpi\n      tag_41\n      tag_38\n      jump\t// in\n    tag_41:\n    tag_40:\n      swap1\n      0x00\n      mstore\n      keccak256(0x00, 0x20)\n      swap1\n      0x06\n      mul\n      add\n        /* \"contracts/TodoList.sol\":2216:2238  todos[index].completed */\n      0x03\n      add\n      0x00\n        /* \"contracts/TodoList.sol\":2216:2264  todos[index].completed = !todos[index].completed */\n      0x0100\n      exp\n      dup2\n      sload\n      dup2\n      0xff\n      mul\n      not\n      and\n      swap1\n      dup4\n      iszero\n      iszero\n      mul\n      or\n      swap1\n      sstore\n      pop\n        /* \"contracts/TodoList.sol\":2160:2271  {... */\n      pop\n        /* \"contracts/TodoList.sol\":2114:2271  function toggleComplete(uint256 _id) external {... */\n      pop\n      jump\t// out\n        /* \"contracts/TodoList.sol\":2671:2898  function removeTodo(uint256 _id) external {... */\n    tag_15:\n        /* \"contracts/TodoList.sol\":2726:2739  uint256 index */\n      0x00\n        /* \"contracts/TodoList.sol\":2743:2759  getTodoById(_id) */\n      tag_44\n        /* \"contracts/TodoList.sol\":2755:2758  _id */\n      dup3\n        /* \"contracts/TodoList.sol\":2743:2754  getTodoById */\n      tag_35\n        /* \"contracts/TodoList.sol\":2743:2759  getTodoById(_id) */\n      jump\t// in\n    tag_44:\n        /* \"contracts/TodoList.sol\":2723:2759  (, uint256 index) = getTodoById(_id) */\n      swap2\n      pop\n      pop\n        /* \"contracts/TodoList.sol\":2785:2790  todos */\n      0x00\n        /* \"contracts/TodoList.sol\":2806:2807  1 */\n      0x01\n        /* \"contracts/TodoList.sol\":2791:2796  todos */\n      0x00\n        /* \"contracts/TodoList.sol\":2791:2803  todos.length */\n      dup1\n      sload\n      swap1\n      pop\n        /* \"contracts/TodoList.sol\":2791:2807  todos.length - 1 */\n      tag_45\n      swap2\n      swap1\n      tag_46\n      jump\t// in\n    tag_45:\n        /* \"contracts/TodoList.sol\":2785:2808  todos[todos.length - 1] */\n      dup2\n      sload\n      dup2\n      lt\n      tag_47\n      jumpi\n      tag_48\n      tag_38\n      jump\t// in\n    tag_48:\n    tag_47:\n      swap1\n      0x00\n      mstore\n      keccak256(0x00, 0x20)\n      swap1\n      0x06\n      mul\n      add\n        /* \"contracts/TodoList.sol\":2770:2775  todos */\n      0x00\n        /* \"contracts/TodoList.sol\":2776:2781  index */\n      dup3\n        /* \"contracts/TodoList.sol\":2770:2782  todos[index] */\n      dup2\n      sload\n      dup2\n      lt\n      tag_50\n      jumpi\n      tag_51\n      tag_38\n      jump\t// in\n    tag_51:\n    tag_50:\n      swap1\n      0x00\n      mstore\n      keccak256(0x00, 0x20)\n      swap1\n      0x06\n      mul\n      add\n        /* \"contracts/TodoList.sol\":2770:2808  todos[index] = todos[todos.length - 1] */\n      0x00\n      dup3\n      add\n      sload\n      dup2\n      0x00\n      add\n      sstore\n      0x01\n      dup3\n      add\n      0x00\n      swap1\n      sload\n      swap1\n      0x0100\n      exp\n      swap1\n      div\n      0xffffffffffffffffffffffffffffffffffffffff\n      and\n      dup2\n      0x01\n      add\n      exp(0x0100, 0x00)\n      dup2\n      sload\n      dup2\n      0xffffffffffffffffffffffffffffffffffffffff\n      mul\n      not\n      and\n      swap1\n      dup4\n      0xffffffffffffffffffffffffffffffffffffffff\n      and\n      mul\n      or\n      swap1\n      sstore\n      pop\n      0x02\n      dup3\n      add\n      dup2\n      0x02\n      add\n      swap1\n      dup1\n      sload\n      tag_53\n      swap1\n      tag_54\n      jump\t// in\n    tag_53:\n      tag_55\n      swap3\n      swap2\n      swap1\n      tag_56\n      jump\t// in\n    tag_55:\n      pop\n      0x03\n      dup3\n      add\n      0x00\n      swap1\n      sload\n      swap1\n      0x0100\n      exp\n      swap1\n      div\n      0xff\n      and\n      dup2\n      0x03\n      add\n      exp(0x0100, 0x00)\n      dup2\n      sload\n      dup2\n      0xff\n      mul\n      not\n      and\n      swap1\n      dup4\n      iszero\n      iszero\n      mul\n      or\n      swap1\n      sstore\n      pop\n      0x04\n      dup3\n      add\n      sload\n      dup2\n      0x04\n      add\n      sstore\n      0x05\n      dup3\n      add\n      sload\n      dup2\n      0x05\n      add\n      sstore\n      swap1\n      pop\n      pop\n        /* \"contracts/TodoList.sol\":2818:2823  todos */\n      0x00\n        /* \"contracts/TodoList.sol\":2818:2829  todos.pop() */\n      dup1\n      sload\n      dup1\n      tag_57\n      jumpi\n      tag_58\n      tag_59\n      jump\t// in\n    tag_58:\n    tag_57:\n      0x01\n      swap1\n      sub\n      dup2\n      dup2\n      swap1\n      0x00\n      mstore\n      keccak256(0x00, 0x20)\n      swap1\n      0x06\n      mul\n      add\n      0x00\n      dup1\n      dup3\n      add\n      0x00\n      swap1\n      sstore\n      0x01\n      dup3\n      add\n      exp(0x0100, 0x00)\n      dup2\n      sload\n      swap1\n      0xffffffffffffffffffffffffffffffffffffffff\n      mul\n      not\n      and\n      swap1\n      sstore\n      0x02\n      dup3\n      add\n      0x00\n      tag_61\n      swap2\n      swap1\n      tag_62\n      jump\t// in\n    tag_61:\n      0x03\n      dup3\n      add\n      exp(0x0100, 0x00)\n      dup2\n      sload\n      swap1\n      0xff\n      mul\n      not\n      and\n      swap1\n      sstore\n      0x04\n      dup3\n      add\n      0x00\n      swap1\n      sstore\n      0x05\n      dup3\n      add\n      0x00\n      swap1\n      sstore\n      pop\n      pop\n      swap1\n      sstore\n        /* \"contracts/TodoList.sol\":2874:2889  block.timestamp */\n      timestamp\n        /* \"contracts/TodoList.sol\":2862:2872  msg.sender */\n      caller\n        /* \"contracts/TodoList.sol\":2845:2890  RemoveEvent(_id, msg.sender, block.timestamp) */\n      0xffffffffffffffffffffffffffffffffffffffff\n      and\n        /* \"contracts/TodoList.sol\":2857:2860  _id */\n      dup4\n        /* \"contracts/TodoList.sol\":2845:2890  RemoveEvent(_id, msg.sender, block.timestamp) */\n      0xa283ae84f92e83b5b281747ff43c74df07cb2cae67d7190cdd7226d731565302\n      mload(0x40)\n      mload(0x40)\n      dup1\n      swap2\n      sub\n      swap1\n      log4\n        /* \"contracts/TodoList.sol\":2713:2898  {... */\n      pop\n        /* \"contracts/TodoList.sol\":2671:2898  function removeTodo(uint256 _id) external {... */\n      pop\n      jump\t// out\n        /* \"contracts/TodoList.sol\":654:673  Todo[] public todos */\n    tag_18:\n      0x00\n      dup2\n      dup2\n      sload\n      dup2\n      lt\n      tag_63\n      jumpi\n      0x00\n      dup1\n      revert\n    tag_63:\n      swap1\n      0x00\n      mstore\n      keccak256(0x00, 0x20)\n      swap1\n      0x06\n      mul\n      add\n      0x00\n      swap2\n      pop\n      swap1\n      pop\n      dup1\n      0x00\n      add\n      sload\n      swap1\n      dup1\n      0x01\n      add\n      0x00\n      swap1\n      sload\n      swap1\n      0x0100\n      exp\n      swap1\n      div\n      0xffffffffffffffffffffffffffffffffffffffff\n      and\n      swap1\n      dup1\n      0x02\n      add\n      dup1\n      sload\n      tag_65\n      swap1\n      tag_54\n      jump\t// in\n    tag_65:\n      dup1\n      0x1f\n      add\n      0x20\n      dup1\n      swap2\n      div\n      mul\n      0x20\n      add\n      mload(0x40)\n      swap1\n      dup2\n      add\n      0x40\n      mstore\n      dup1\n      swap3\n      swap2\n      swap1\n      dup2\n      dup2\n      mstore\n      0x20\n      add\n      dup3\n      dup1\n      sload\n      tag_66\n      swap1\n      tag_54\n      jump\t// in\n    tag_66:\n      dup1\n      iszero\n      tag_67\n      jumpi\n      dup1\n      0x1f\n      lt\n      tag_68\n      jumpi\n      0x0100\n      dup1\n      dup4\n      sload\n      div\n      mul\n      dup4\n      mstore\n      swap2\n      0x20\n      add\n      swap2\n      jump(tag_67)\n    tag_68:\n      dup3\n      add\n      swap2\n      swap1\n      0x00\n      mstore\n      keccak256(0x00, 0x20)\n      swap1\n    tag_69:\n      dup2\n      sload\n      dup2\n      mstore\n      swap1\n      0x01\n      add\n      swap1\n      0x20\n      add\n      dup1\n      dup4\n      gt\n      tag_69\n      jumpi\n      dup3\n      swap1\n      sub\n      0x1f\n      and\n      dup3\n      add\n      swap2\n    tag_67:\n      pop\n      pop\n      pop\n      pop\n      pop\n      swap1\n      dup1\n      0x03\n      add\n      0x00\n      swap1\n      sload\n      swap1\n      0x0100\n      exp\n      swap1\n      div\n      0xff\n      and\n      swap1\n      dup1\n      0x04\n      add\n      sload\n      swap1\n      dup1\n      0x05\n      add\n      sload\n      swap1\n      pop\n      dup7\n      jump\t// out\n        /* \"contracts/TodoList.sol\":1427:2108  function getTodos() public view returns (Todo[] memory) {... */\n    tag_22:\n        /* \"contracts/TodoList.sol\":1468:1481  Todo[] memory */\n      0x60\n        /* \"contracts/TodoList.sol\":1493:1506  uint256 count */\n      0x00\n        /* \"contracts/TodoList.sol\":1575:1584  uint256 i */\n      dup1\n        /* \"contracts/TodoList.sol\":1570:1711  for (uint256 i = 0; i < todos.length; i++) {... */\n    tag_71:\n        /* \"contracts/TodoList.sol\":1594:1599  todos */\n      0x00\n        /* \"contracts/TodoList.sol\":1594:1606  todos.length */\n      dup1\n      sload\n      swap1\n      pop\n        /* \"contracts/TodoList.sol\":1590:1591  i */\n      dup2\n        /* \"contracts/TodoList.sol\":1590:1606  i < todos.length */\n      lt\n        /* \"contracts/TodoList.sol\":1570:1711  for (uint256 i = 0; i < todos.length; i++) {... */\n      iszero\n      tag_72\n      jumpi\n        /* \"contracts/TodoList.sol\":1649:1659  msg.sender */\n      caller\n        /* \"contracts/TodoList.sol\":1631:1659  todos[i].owner == msg.sender */\n      0xffffffffffffffffffffffffffffffffffffffff\n      and\n        /* \"contracts/TodoList.sol\":1631:1636  todos */\n      0x00\n        /* \"contracts/TodoList.sol\":1637:1638  i */\n      dup3\n        /* \"contracts/TodoList.sol\":1631:1639  todos[i] */\n      dup2\n      sload\n      dup2\n      lt\n      tag_74\n      jumpi\n      tag_75\n      tag_38\n      jump\t// in\n    tag_75:\n    tag_74:\n      swap1\n      0x00\n      mstore\n      keccak256(0x00, 0x20)\n      swap1\n      0x06\n      mul\n      add\n        /* \"contracts/TodoList.sol\":1631:1645  todos[i].owner */\n      0x01\n      add\n      0x00\n      swap1\n      sload\n      swap1\n      0x0100\n      exp\n      swap1\n      div\n      0xffffffffffffffffffffffffffffffffffffffff\n      and\n        /* \"contracts/TodoList.sol\":1631:1659  todos[i].owner == msg.sender */\n      0xffffffffffffffffffffffffffffffffffffffff\n      and\n      eq\n        /* \"contracts/TodoList.sol\":1627:1701  if (todos[i].owner == msg.sender) {... */\n      iszero\n      tag_77\n      jumpi\n        /* \"contracts/TodoList.sol\":1679:1686  count++ */\n      dup2\n      dup1\n      tag_78\n      swap1\n      tag_79\n      jump\t// in\n    tag_78:\n      swap3\n      pop\n      pop\n        /* \"contracts/TodoList.sol\":1627:1701  if (todos[i].owner == msg.sender) {... */\n    tag_77:\n        /* \"contracts/TodoList.sol\":1608:1611  i++ */\n      dup1\n      dup1\n      tag_80\n      swap1\n      tag_79\n      jump\t// in\n    tag_80:\n      swap2\n      pop\n      pop\n        /* \"contracts/TodoList.sol\":1570:1711  for (uint256 i = 0; i < todos.length; i++) {... */\n      jump(tag_71)\n    tag_72:\n      pop\n        /* \"contracts/TodoList.sol\":1775:1798  Todo[] memory userTodos */\n      0x00\n        /* \"contracts/TodoList.sol\":1812:1817  count */\n      dup2\n        /* \"contracts/TodoList.sol\":1801:1818  new Todo[](count) */\n      0xffffffffffffffff\n      dup2\n      gt\n      iszero\n      tag_81\n      jumpi\n      tag_82\n      tag_83\n      jump\t// in\n    tag_82:\n    tag_81:\n      mload(0x40)\n      swap1\n      dup1\n      dup3\n      mstore\n      dup1\n      0x20\n      mul\n      0x20\n      add\n      dup3\n      add\n      0x40\n      mstore\n      dup1\n      iszero\n      tag_84\n      jumpi\n      dup2\n      0x20\n      add\n    tag_85:\n      tag_86\n      tag_87\n      jump\t// in\n    tag_86:\n      dup2\n      mstore\n      0x20\n      add\n      swap1\n      0x01\n      swap1\n      sub\n      swap1\n      dup2\n      tag_85\n      jumpi\n      swap1\n      pop\n    tag_84:\n      pop\n        /* \"contracts/TodoList.sol\":1775:1818  Todo[] memory userTodos = new Todo[](count) */\n      swap1\n      pop\n        /* \"contracts/TodoList.sol\":1828:1841  uint256 index */\n      0x00\n        /* \"contracts/TodoList.sol\":1895:1904  uint256 i */\n      dup1\n        /* \"contracts/TodoList.sol\":1890:2076  for (uint256 i = 0; i < todos.length; i++) {... */\n    tag_88:\n        /* \"contracts/TodoList.sol\":1914:1919  todos */\n      0x00\n        /* \"contracts/TodoList.sol\":1914:1926  todos.length */\n      dup1\n      sload\n      swap1\n      pop\n        /* \"contracts/TodoList.sol\":1910:1911  i */\n      dup2\n        /* \"contracts/TodoList.sol\":1910:1926  i < todos.length */\n      lt\n        /* \"contracts/TodoList.sol\":1890:2076  for (uint256 i = 0; i < todos.length; i++) {... */\n      iszero\n      tag_89\n      jumpi\n        /* \"contracts/TodoList.sol\":1969:1979  msg.sender */\n      caller\n        /* \"contracts/TodoList.sol\":1951:1979  todos[i].owner == msg.sender */\n      0xffffffffffffffffffffffffffffffffffffffff\n      and\n        /* \"contracts/TodoList.sol\":1951:1956  todos */\n      0x00\n        /* \"contracts/TodoList.sol\":1957:1958  i */\n      dup3\n        /* \"contracts/TodoList.sol\":1951:1959  todos[i] */\n      dup2\n      sload\n      dup2\n      lt\n      tag_91\n      jumpi\n      tag_92\n      tag_38\n      jump\t// in\n    tag_92:\n    tag_91:\n      swap1\n      0x00\n      mstore\n      keccak256(0x00, 0x20)\n      swap1\n      0x06\n      mul\n      add\n        /* \"contracts/TodoList.sol\":1951:1965  todos[i].owner */\n      0x01\n      add\n      0x00\n      swap1\n      sload\n      swap1\n      0x0100\n      exp\n      swap1\n      div\n      0xffffffffffffffffffffffffffffffffffffffff\n      and\n        /* \"contracts/TodoList.sol\":1951:1979  todos[i].owner == msg.sender */\n      0xffffffffffffffffffffffffffffffffffffffff\n      and\n      eq\n        /* \"contracts/TodoList.sol\":1947:2066  if (todos[i].owner == msg.sender) {... */\n      iszero\n      tag_94\n      jumpi\n        /* \"contracts/TodoList.sol\":2018:2023  todos */\n      0x00\n        /* \"contracts/TodoList.sol\":2024:2025  i */\n      dup2\n        /* \"contracts/TodoList.sol\":2018:2026  todos[i] */\n      dup2\n      sload\n      dup2\n      lt\n      tag_95\n      jumpi\n      tag_96\n      tag_38\n      jump\t// in\n    tag_96:\n    tag_95:\n      swap1\n      0x00\n      mstore\n      keccak256(0x00, 0x20)\n      swap1\n      0x06\n      mul\n      add\n        /* \"contracts/TodoList.sol\":1999:2026  userTodos[index] = todos[i] */\n      mload(0x40)\n      dup1\n      0xc0\n      add\n      0x40\n      mstore\n      swap1\n      dup2\n      0x00\n      dup3\n      add\n      sload\n      dup2\n      mstore\n      0x20\n      add\n      0x01\n      dup3\n      add\n      0x00\n      swap1\n      sload\n      swap1\n      0x0100\n      exp\n      swap1\n      div\n      0xffffffffffffffffffffffffffffffffffffffff\n      and\n      0xffffffffffffffffffffffffffffffffffffffff\n      and\n      0xffffffffffffffffffffffffffffffffffffffff\n      and\n      dup2\n      mstore\n      0x20\n      add\n      0x02\n      dup3\n      add\n      dup1\n      sload\n      tag_98\n      swap1\n      tag_54\n      jump\t// in\n    tag_98:\n      dup1\n      0x1f\n      add\n      0x20\n      dup1\n      swap2\n      div\n      mul\n      0x20\n      add\n      mload(0x40)\n      swap1\n      dup2\n      add\n      0x40\n      mstore\n      dup1\n      swap3\n      swap2\n      swap1\n      dup2\n      dup2\n      mstore\n      0x20\n      add\n      dup3\n      dup1\n      sload\n      tag_99\n      swap1\n      tag_54\n      jump\t// in\n    tag_99:\n      dup1\n      iszero\n      tag_100\n      jumpi\n      dup1\n      0x1f\n      lt\n      tag_101\n      jumpi\n      0x0100\n      dup1\n      dup4\n      sload\n      div\n      mul\n      dup4\n      mstore\n      swap2\n      0x20\n      add\n      swap2\n      jump(tag_100)\n    tag_101:\n      dup3\n      add\n      swap2\n      swap1\n      0x00\n      mstore\n      keccak256(0x00, 0x20)\n      swap1\n    tag_102:\n      dup2\n      sload\n      dup2\n      mstore\n      swap1\n      0x01\n      add\n      swap1\n      0x20\n      add\n      dup1\n      dup4\n      gt\n      tag_102\n      jumpi\n      dup3\n      swap1\n      sub\n      0x1f\n      and\n      dup3\n      add\n      swap2\n    tag_100:\n      pop\n      pop\n      pop\n      pop\n      pop\n      dup2\n      mstore\n      0x20\n      add\n      0x03\n      dup3\n      add\n      0x00\n      swap1\n      sload\n      swap1\n      0x0100\n      exp\n      swap1\n      div\n      0xff\n      and\n      iszero\n      iszero\n      iszero\n      iszero\n      dup2\n      mstore\n      0x20\n      add\n      0x04\n      dup3\n      add\n      sload\n      dup2\n      mstore\n      0x20\n      add\n      0x05\n      dup3\n      add\n      sload\n      dup2\n      mstore\n      pop\n      pop\n        /* \"contracts/TodoList.sol\":1999:2008  userTodos */\n      dup4\n        /* \"contracts/TodoList.sol\":2009:2014  index */\n      dup4\n        /* \"contracts/TodoList.sol\":1999:2015  userTodos[index] */\n      dup2\n      mload\n      dup2\n      lt\n      tag_103\n      jumpi\n      tag_104\n      tag_38\n      jump\t// in\n    tag_104:\n    tag_103:\n      0x20\n      mul\n      0x20\n      add\n      add\n        /* \"contracts/TodoList.sol\":1999:2026  userTodos[index] = todos[i] */\n      dup2\n      swap1\n      mstore\n      pop\n        /* \"contracts/TodoList.sol\":2044:2051  index++ */\n      dup2\n      dup1\n      tag_105\n      swap1\n      tag_79\n      jump\t// in\n    tag_105:\n      swap3\n      pop\n      pop\n        /* \"contracts/TodoList.sol\":1947:2066  if (todos[i].owner == msg.sender) {... */\n    tag_94:\n        /* \"contracts/TodoList.sol\":1928:1931  i++ */\n      dup1\n      dup1\n      tag_106\n      swap1\n      tag_79\n      jump\t// in\n    tag_106:\n      swap2\n      pop\n      pop\n        /* \"contracts/TodoList.sol\":1890:2076  for (uint256 i = 0; i < todos.length; i++) {... */\n      jump(tag_88)\n    tag_89:\n      pop\n        /* \"contracts/TodoList.sol\":2092:2101  userTodos */\n      dup2\n        /* \"contracts/TodoList.sol\":2085:2101  return userTodos */\n      swap4\n      pop\n      pop\n      pop\n      pop\n        /* \"contracts/TodoList.sol\":1427:2108  function getTodos() public view returns (Todo[] memory) {... */\n      swap1\n      jump\t// out\n        /* \"contracts/TodoList.sol\":1151:1421  function updateTodo(uint256 _id, string memory _text) external {... */\n    tag_28:\n        /* \"contracts/TodoList.sol\":1227:1240  uint256 index */\n      0x00\n        /* \"contracts/TodoList.sol\":1244:1260  getTodoById(_id) */\n      tag_108\n        /* \"contracts/TodoList.sol\":1256:1259  _id */\n      dup4\n        /* \"contracts/TodoList.sol\":1244:1255  getTodoById */\n      tag_35\n        /* \"contracts/TodoList.sol\":1244:1260  getTodoById(_id) */\n      jump\t// in\n    tag_108:\n        /* \"contracts/TodoList.sol\":1224:1260  (, uint256 index) = getTodoById(_id) */\n      swap2\n      pop\n      pop\n        /* \"contracts/TodoList.sol\":1291:1296  _text */\n      dup2\n        /* \"contracts/TodoList.sol\":1271:1276  todos */\n      0x00\n        /* \"contracts/TodoList.sol\":1277:1282  index */\n      dup3\n        /* \"contracts/TodoList.sol\":1271:1283  todos[index] */\n      dup2\n      sload\n      dup2\n      lt\n      tag_109\n      jumpi\n      tag_110\n      tag_38\n      jump\t// in\n    tag_110:\n    tag_109:\n      swap1\n      0x00\n      mstore\n      keccak256(0x00, 0x20)\n      swap1\n      0x06\n      mul\n      add\n        /* \"contracts/TodoList.sol\":1271:1288  todos[index].text */\n      0x02\n      add\n        /* \"contracts/TodoList.sol\":1271:1296  todos[index].text = _text */\n      swap1\n      dup1\n      mload\n      swap1\n      0x20\n      add\n      swap1\n      tag_112\n      swap3\n      swap2\n      swap1\n      tag_113\n      jump\t// in\n    tag_112:\n      pop\n        /* \"contracts/TodoList.sol\":1329:1344  block.timestamp */\n      timestamp\n        /* \"contracts/TodoList.sol\":1306:1311  todos */\n      0x00\n        /* \"contracts/TodoList.sol\":1312:1317  index */\n      dup3\n        /* \"contracts/TodoList.sol\":1306:1318  todos[index] */\n      dup2\n      sload\n      dup2\n      lt\n      tag_114\n      jumpi\n      tag_115\n      tag_38\n      jump\t// in\n    tag_115:\n    tag_114:\n      swap1\n      0x00\n      mstore\n      keccak256(0x00, 0x20)\n      swap1\n      0x06\n      mul\n      add\n        /* \"contracts/TodoList.sol\":1306:1326  todos[index].updated */\n      0x05\n      add\n        /* \"contracts/TodoList.sol\":1306:1344  todos[index].updated = block.timestamp */\n      dup2\n      swap1\n      sstore\n      pop\n        /* \"contracts/TodoList.sol\":1398:1413  block.timestamp */\n      timestamp\n        /* \"contracts/TodoList.sol\":1391:1396  _text */\n      dup3\n        /* \"contracts/TodoList.sol\":1359:1414  UpdateEvent(nextId, msg.sender, _text, block.timestamp) */\n      mload(0x40)\n      tag_117\n      swap2\n      swap1\n      tag_118\n      jump\t// in\n    tag_117:\n      mload(0x40)\n      dup1\n      swap2\n      sub\n      swap1\n      keccak256\n        /* \"contracts/TodoList.sol\":1379:1389  msg.sender */\n      caller\n        /* \"contracts/TodoList.sol\":1359:1414  UpdateEvent(nextId, msg.sender, _text, block.timestamp) */\n      0xffffffffffffffffffffffffffffffffffffffff\n      and\n      0x1bfc1050c12735e07f86d48dc958e8c1588bf60f76c6dce9144d31bb34ad204c\n        /* \"contracts/TodoList.sol\":1371:1377  nextId */\n      sload(0x01)\n        /* \"contracts/TodoList.sol\":1359:1414  UpdateEvent(nextId, msg.sender, _text, block.timestamp) */\n      mload(0x40)\n      tag_119\n      swap2\n      swap1\n      tag_120\n      jump\t// in\n    tag_119:\n      mload(0x40)\n      dup1\n      swap2\n      sub\n      swap1\n      log4\n        /* \"contracts/TodoList.sol\":1214:1421  {... */\n      pop\n        /* \"contracts/TodoList.sol\":1151:1421  function updateTodo(uint256 _id, string memory _text) external {... */\n      pop\n      pop\n      jump\t// out\n        /* \"contracts/TodoList.sol\":742:1145  function createTodo(string memory _text) external {... */\n    tag_32:\n        /* \"contracts/TodoList.sol\":802:818  Todo memory todo */\n      0x00\n        /* \"contracts/TodoList.sol\":821:1025  Todo({... */\n      mload(0x40)\n      dup1\n      0xc0\n      add\n      0x40\n      mstore\n      dup1\n        /* \"contracts/TodoList.sol\":844:850  nextId */\n      sload(0x01)\n        /* \"contracts/TodoList.sol\":821:1025  Todo({... */\n      dup2\n      mstore\n      0x20\n      add\n        /* \"contracts/TodoList.sol\":871:881  msg.sender */\n      caller\n        /* \"contracts/TodoList.sol\":821:1025  Todo({... */\n      0xffffffffffffffffffffffffffffffffffffffff\n      and\n      dup2\n      mstore\n      0x20\n      add\n        /* \"contracts/TodoList.sol\":901:906  _text */\n      dup4\n        /* \"contracts/TodoList.sol\":821:1025  Todo({... */\n      dup2\n      mstore\n      0x20\n      add\n        /* \"contracts/TodoList.sol\":931:936  false */\n      0x00\n        /* \"contracts/TodoList.sol\":821:1025  Todo({... */\n      iszero\n      iszero\n      dup2\n      mstore\n      0x20\n      add\n        /* \"contracts/TodoList.sol\":961:976  block.timestamp */\n      timestamp\n        /* \"contracts/TodoList.sol\":821:1025  Todo({... */\n      dup2\n      mstore\n      0x20\n      add\n        /* \"contracts/TodoList.sol\":999:1014  block.timestamp */\n      timestamp\n        /* \"contracts/TodoList.sol\":821:1025  Todo({... */\n      dup2\n      mstore\n      pop\n        /* \"contracts/TodoList.sol\":802:1025  Todo memory todo = Todo({... */\n      swap1\n      pop\n        /* \"contracts/TodoList.sol\":1078:1093  block.timestamp */\n      timestamp\n        /* \"contracts/TodoList.sol\":1071:1076  _text */\n      dup3\n        /* \"contracts/TodoList.sol\":1040:1094  CreteEvent(nextId, msg.sender, _text, block.timestamp) */\n      mload(0x40)\n      tag_122\n      swap2\n      swap1\n      tag_118\n      jump\t// in\n    tag_122:\n      mload(0x40)\n      dup1\n      swap2\n      sub\n      swap1\n      keccak256\n        /* \"contracts/TodoList.sol\":1059:1069  msg.sender */\n      caller\n        /* \"contracts/TodoList.sol\":1040:1094  CreteEvent(nextId, msg.sender, _text, block.timestamp) */\n      0xffffffffffffffffffffffffffffffffffffffff\n      and\n      0xacc169aa69d74e444dd546cfb88dbf2990738e83ca82c06645b16705977c906e\n        /* \"contracts/TodoList.sol\":1051:1057  nextId */\n      sload(0x01)\n        /* \"contracts/TodoList.sol\":1040:1094  CreteEvent(nextId, msg.sender, _text, block.timestamp) */\n      mload(0x40)\n      tag_123\n      swap2\n      swap1\n      tag_120\n      jump\t// in\n    tag_123:\n      mload(0x40)\n      dup1\n      swap2\n      sub\n      swap1\n      log4\n        /* \"contracts/TodoList.sol\":1104:1109  todos */\n      0x00\n        /* \"contracts/TodoList.sol\":1115:1119  todo */\n      dup2\n        /* \"contracts/TodoList.sol\":1104:1120  todos.push(todo) */\n      swap1\n      dup1\n      0x01\n      dup2\n      sload\n      add\n      dup1\n      dup3\n      sstore\n      dup1\n      swap2\n      pop\n      pop\n      0x01\n      swap1\n      sub\n      swap1\n      0x00\n      mstore\n      keccak256(0x00, 0x20)\n      swap1\n      0x06\n      mul\n      add\n      0x00\n      swap1\n      swap2\n      swap1\n      swap2\n      swap1\n      swap2\n      pop\n      0x00\n      dup3\n      add\n      mload\n      dup2\n      0x00\n      add\n      sstore\n      0x20\n      dup3\n      add\n      mload\n      dup2\n      0x01\n      add\n      exp(0x0100, 0x00)\n      dup2\n      sload\n      dup2\n      0xffffffffffffffffffffffffffffffffffffffff\n      mul\n      not\n      and\n      swap1\n      dup4\n      0xffffffffffffffffffffffffffffffffffffffff\n      and\n      mul\n      or\n      swap1\n      sstore\n      pop\n      0x40\n      dup3\n      add\n      mload\n      dup2\n      0x02\n      add\n      swap1\n      dup1\n      mload\n      swap1\n      0x20\n      add\n      swap1\n      tag_125\n      swap3\n      swap2\n      swap1\n      tag_113\n      jump\t// in\n    tag_125:\n      pop\n      0x60\n      dup3\n      add\n      mload\n      dup2\n      0x03\n      add\n      exp(0x0100, 0x00)\n      dup2\n      sload\n      dup2\n      0xff\n      mul\n      not\n      and\n      swap1\n      dup4\n      iszero\n      iszero\n      mul\n      or\n      swap1\n      sstore\n      pop\n      0x80\n      dup3\n      add\n      mload\n      dup2\n      0x04\n      add\n      sstore\n      0xa0\n      dup3\n      add\n      mload\n      dup2\n      0x05\n      add\n      sstore\n      pop\n      pop\n        /* \"contracts/TodoList.sol\":1130:1136  nextId */\n      0x01\n      0x00\n        /* \"contracts/TodoList.sol\":1130:1138  nextId++ */\n      dup2\n      sload\n      dup1\n      swap3\n      swap2\n      swap1\n      tag_126\n      swap1\n      tag_79\n      jump\t// in\n    tag_126:\n      swap2\n      swap1\n      pop\n      sstore\n      pop\n        /* \"contracts/TodoList.sol\":792:1145  {... */\n      pop\n        /* \"contracts/TodoList.sol\":742:1145  function createTodo(string memory _text) external {... */\n      pop\n      jump\t// out\n        /* \"contracts/TodoList.sol\":2277:2665  function getTodoById(uint256 _id)... */\n    tag_35:\n        /* \"contracts/TodoList.sol\":2357:2368  Todo memory */\n      tag_127\n      tag_87\n      jump\t// in\n    tag_127:\n        /* \"contracts/TodoList.sol\":2370:2383  uint256 index */\n      0x00\n        /* \"contracts/TodoList.sol\":2404:2413  uint256 i */\n      dup1\n        /* \"contracts/TodoList.sol\":2416:2417  0 */\n      0x00\n        /* \"contracts/TodoList.sol\":2404:2417  uint256 i = 0 */\n      swap1\n      pop\n        /* \"contracts/TodoList.sol\":2399:2609  for (uint256 i = 0; i < todos.length; i++) {... */\n    tag_129:\n        /* \"contracts/TodoList.sol\":2423:2428  todos */\n      0x00\n        /* \"contracts/TodoList.sol\":2423:2435  todos.length */\n      dup1\n      sload\n      swap1\n      pop\n        /* \"contracts/TodoList.sol\":2419:2420  i */\n      dup2\n        /* \"contracts/TodoList.sol\":2419:2435  i < todos.length */\n      lt\n        /* \"contracts/TodoList.sol\":2399:2609  for (uint256 i = 0; i < todos.length; i++) {... */\n      iszero\n      tag_130\n      jumpi\n        /* \"contracts/TodoList.sol\":2456:2472  Todo memory todo */\n      0x00\n        /* \"contracts/TodoList.sol\":2475:2480  todos */\n      dup1\n        /* \"contracts/TodoList.sol\":2481:2482  i */\n      dup3\n        /* \"contracts/TodoList.sol\":2475:2483  todos[i] */\n      dup2\n      sload\n      dup2\n      lt\n      tag_132\n      jumpi\n      tag_133\n      tag_38\n      jump\t// in\n    tag_133:\n    tag_132:\n      swap1\n      0x00\n      mstore\n      keccak256(0x00, 0x20)\n      swap1\n      0x06\n      mul\n      add\n        /* \"contracts/TodoList.sol\":2456:2483  Todo memory todo = todos[i] */\n      mload(0x40)\n      dup1\n      0xc0\n      add\n      0x40\n      mstore\n      swap1\n      dup2\n      0x00\n      dup3\n      add\n      sload\n      dup2\n      mstore\n      0x20\n      add\n      0x01\n      dup3\n      add\n      0x00\n      swap1\n      sload\n      swap1\n      0x0100\n      exp\n      swap1\n      div\n      0xffffffffffffffffffffffffffffffffffffffff\n      and\n      0xffffffffffffffffffffffffffffffffffffffff\n      and\n      0xffffffffffffffffffffffffffffffffffffffff\n      and\n      dup2\n      mstore\n      0x20\n      add\n      0x02\n      dup3\n      add\n      dup1\n      sload\n      tag_135\n      swap1\n      tag_54\n      jump\t// in\n    tag_135:\n      dup1\n      0x1f\n      add\n      0x20\n      dup1\n      swap2\n      div\n      mul\n      0x20\n      add\n      mload(0x40)\n      swap1\n      dup2\n      add\n      0x40\n      mstore\n      dup1\n      swap3\n      swap2\n      swap1\n      dup2\n      dup2\n      mstore\n      0x20\n      add\n      dup3\n      dup1\n      sload\n      tag_136\n      swap1\n      tag_54\n      jump\t// in\n    tag_136:\n      dup1\n      iszero\n      tag_137\n      jumpi\n      dup1\n      0x1f\n      lt\n      tag_138\n      jumpi\n      0x0100\n      dup1\n      dup4\n      sload\n      div\n      mul\n      dup4\n      mstore\n      swap2\n      0x20\n      add\n      swap2\n      jump(tag_137)\n    tag_138:\n      dup3\n      add\n      swap2\n      swap1\n      0x00\n      mstore\n      keccak256(0x00, 0x20)\n      swap1\n    tag_139:\n      dup2\n      sload\n      dup2\n      mstore\n      swap1\n      0x01\n      add\n      swap1\n      0x20\n      add\n      dup1\n      dup4\n      gt\n      tag_139\n      jumpi\n      dup3\n      swap1\n      sub\n      0x1f\n      and\n      dup3\n      add\n      swap2\n    tag_137:\n      pop\n      pop\n      pop\n      pop\n      pop\n      dup2\n      mstore\n      0x20\n      add\n      0x03\n      dup3\n      add\n      0x00\n      swap1\n      sload\n      swap1\n      0x0100\n      exp\n      swap1\n      div\n      0xff\n      and\n      iszero\n      iszero\n      iszero\n      iszero\n      dup2\n      mstore\n      0x20\n      add\n      0x04\n      dup3\n      add\n      sload\n      dup2\n      mstore\n      0x20\n      add\n      0x05\n      dup3\n      add\n      sload\n      dup2\n      mstore\n      pop\n      pop\n      swap1\n      pop\n        /* \"contracts/TodoList.sol\":2513:2516  _id */\n      dup5\n        /* \"contracts/TodoList.sol\":2502:2506  todo */\n      dup2\n        /* \"contracts/TodoList.sol\":2502:2509  todo.id */\n      0x00\n      add\n      mload\n        /* \"contracts/TodoList.sol\":2502:2516  todo.id == _id */\n      eq\n        /* \"contracts/TodoList.sol\":2502:2544  todo.id == _id && todo.owner == msg.sender */\n      dup1\n      iszero\n      tag_140\n      jumpi\n      pop\n        /* \"contracts/TodoList.sol\":2534:2544  msg.sender */\n      caller\n        /* \"contracts/TodoList.sol\":2520:2544  todo.owner == msg.sender */\n      0xffffffffffffffffffffffffffffffffffffffff\n      and\n        /* \"contracts/TodoList.sol\":2520:2524  todo */\n      dup2\n        /* \"contracts/TodoList.sol\":2520:2530  todo.owner */\n      0x20\n      add\n      mload\n        /* \"contracts/TodoList.sol\":2520:2544  todo.owner == msg.sender */\n      0xffffffffffffffffffffffffffffffffffffffff\n      and\n      eq\n        /* \"contracts/TodoList.sol\":2502:2544  todo.id == _id && todo.owner == msg.sender */\n    tag_140:\n        /* \"contracts/TodoList.sol\":2498:2599  if (todo.id == _id && todo.owner == msg.sender) {... */\n      iszero\n      tag_141\n      jumpi\n        /* \"contracts/TodoList.sol\":2572:2577  todos */\n      0x00\n        /* \"contracts/TodoList.sol\":2578:2579  i */\n      dup3\n        /* \"contracts/TodoList.sol\":2572:2580  todos[i] */\n      dup2\n      sload\n      dup2\n      lt\n      tag_142\n      jumpi\n      tag_143\n      tag_38\n      jump\t// in\n    tag_143:\n    tag_142:\n      swap1\n      0x00\n      mstore\n      keccak256(0x00, 0x20)\n      swap1\n      0x06\n      mul\n      add\n        /* \"contracts/TodoList.sol\":2582:2583  i */\n      dup3\n        /* \"contracts/TodoList.sol\":2564:2584  return (todos[i], i) */\n      dup2\n      mload(0x40)\n      dup1\n      0xc0\n      add\n      0x40\n      mstore\n      swap1\n      dup2\n      0x00\n      dup3\n      add\n      sload\n      dup2\n      mstore\n      0x20\n      add\n      0x01\n      dup3\n      add\n      0x00\n      swap1\n      sload\n      swap1\n      0x0100\n      exp\n      swap1\n      div\n      0xffffffffffffffffffffffffffffffffffffffff\n      and\n      0xffffffffffffffffffffffffffffffffffffffff\n      and\n      0xffffffffffffffffffffffffffffffffffffffff\n      and\n      dup2\n      mstore\n      0x20\n      add\n      0x02\n      dup3\n      add\n      dup1\n      sload\n      tag_145\n      swap1\n      tag_54\n      jump\t// in\n    tag_145:\n      dup1\n      0x1f\n      add\n      0x20\n      dup1\n      swap2\n      div\n      mul\n      0x20\n      add\n      mload(0x40)\n      swap1\n      dup2\n      add\n      0x40\n      mstore\n      dup1\n      swap3\n      swap2\n      swap1\n      dup2\n      dup2\n      mstore\n      0x20\n      add\n      dup3\n      dup1\n      sload\n      tag_146\n      swap1\n      tag_54\n      jump\t// in\n    tag_146:\n      dup1\n      iszero\n      tag_147\n      jumpi\n      dup1\n      0x1f\n      lt\n      tag_148\n      jumpi\n      0x0100\n      dup1\n      dup4\n      sload\n      div\n      mul\n      dup4\n      mstore\n      swap2\n      0x20\n      add\n      swap2\n      jump(tag_147)\n    tag_148:\n      dup3\n      add\n      swap2\n      swap1\n      0x00\n      mstore\n      keccak256(0x00, 0x20)\n      swap1\n    tag_149:\n      dup2\n      sload\n      dup2\n      mstore\n      swap1\n      0x01\n      add\n      swap1\n      0x20\n      add\n      dup1\n      dup4\n      gt\n      tag_149\n      jumpi\n      dup3\n      swap1\n      sub\n      0x1f\n      and\n      dup3\n      add\n      swap2\n    tag_147:\n      pop\n      pop\n      pop\n      pop\n      pop\n      dup2\n      mstore\n      0x20\n      add\n      0x03\n      dup3\n      add\n      0x00\n      swap1\n      sload\n      swap1\n      0x0100\n      exp\n      swap1\n      div\n      0xff\n      and\n      iszero\n      iszero\n      iszero\n      iszero\n      dup2\n      mstore\n      0x20\n      add\n      0x04\n      dup3\n      add\n      sload\n      dup2\n      mstore\n      0x20\n      add\n      0x05\n      dup3\n      add\n      sload\n      dup2\n      mstore\n      pop\n      pop\n      swap2\n      pop\n      swap4\n      pop\n      swap4\n      pop\n      pop\n      pop\n      jump(tag_128)\n        /* \"contracts/TodoList.sol\":2498:2599  if (todo.id == _id && todo.owner == msg.sender) {... */\n    tag_141:\n        /* \"contracts/TodoList.sol\":2442:2609  {... */\n      pop\n        /* \"contracts/TodoList.sol\":2437:2440  i++ */\n      dup1\n      dup1\n      tag_150\n      swap1\n      tag_79\n      jump\t// in\n    tag_150:\n      swap2\n      pop\n      pop\n        /* \"contracts/TodoList.sol\":2399:2609  for (uint256 i = 0; i < todos.length; i++) {... */\n      jump(tag_129)\n    tag_130:\n      pop\n        /* \"contracts/TodoList.sol\":2618:2658  revert(\"Todo not found or unauthorized\") */\n      mload(0x40)\n      0x08c379a000000000000000000000000000000000000000000000000000000000\n      dup2\n      mstore\n      0x04\n      add\n      tag_151\n      swap1\n      tag_152\n      jump\t// in\n    tag_151:\n      mload(0x40)\n      dup1\n      swap2\n      sub\n      swap1\n      revert\n        /* \"contracts/TodoList.sol\":2277:2665  function getTodoById(uint256 _id)... */\n    tag_128:\n      swap2\n      pop\n      swap2\n      jump\t// out\n    tag_56:\n      dup3\n      dup1\n      sload\n      tag_153\n      swap1\n      tag_54\n      jump\t// in\n    tag_153:\n      swap1\n      0x00\n      mstore\n      keccak256(0x00, 0x20)\n      swap1\n      0x1f\n      add\n      0x20\n      swap1\n      div\n      dup2\n      add\n      swap3\n      dup3\n      tag_155\n      jumpi\n      0x00\n      dup6\n      sstore\n      jump(tag_154)\n    tag_155:\n      dup3\n      0x1f\n      lt\n      tag_156\n      jumpi\n      dup1\n      sload\n      dup6\n      sstore\n      jump(tag_154)\n    tag_156:\n      dup3\n      dup1\n      add\n      0x01\n      add\n      dup6\n      sstore\n      dup3\n      iszero\n      tag_154\n      jumpi\n      0x00\n      mstore\n      keccak256(0x00, 0x20)\n      swap2\n      0x1f\n      add\n      0x20\n      swap1\n      div\n      dup3\n      add\n    tag_157:\n      dup3\n      dup2\n      gt\n      iszero\n      tag_158\n      jumpi\n      dup3\n      sload\n      dup3\n      sstore\n      swap2\n      0x01\n      add\n      swap2\n      swap1\n      0x01\n      add\n      swap1\n      jump(tag_157)\n    tag_158:\n    tag_154:\n      pop\n      swap1\n      pop\n      tag_159\n      swap2\n      swap1\n      tag_160\n      jump\t// in\n    tag_159:\n      pop\n      swap1\n      jump\t// out\n    tag_62:\n      pop\n      dup1\n      sload\n      tag_161\n      swap1\n      tag_54\n      jump\t// in\n    tag_161:\n      0x00\n      dup3\n      sstore\n      dup1\n      0x1f\n      lt\n      tag_163\n      jumpi\n      pop\n      jump(tag_162)\n    tag_163:\n      0x1f\n      add\n      0x20\n      swap1\n      div\n      swap1\n      0x00\n      mstore\n      keccak256(0x00, 0x20)\n      swap1\n      dup2\n      add\n      swap1\n      tag_164\n      swap2\n      swap1\n      tag_160\n      jump\t// in\n    tag_164:\n    tag_162:\n      pop\n      jump\t// out\n    tag_87:\n      mload(0x40)\n      dup1\n      0xc0\n      add\n      0x40\n      mstore\n      dup1\n      0x00\n      dup2\n      mstore\n      0x20\n      add\n      and(0xffffffffffffffffffffffffffffffffffffffff, 0x00)\n      dup2\n      mstore\n      0x20\n      add\n      0x60\n      dup2\n      mstore\n      0x20\n      add\n      iszero(iszero(0x00))\n      dup2\n      mstore\n      0x20\n      add\n      0x00\n      dup2\n      mstore\n      0x20\n      add\n      0x00\n      dup2\n      mstore\n      pop\n      swap1\n      jump\t// out\n    tag_113:\n      dup3\n      dup1\n      sload\n      tag_165\n      swap1\n      tag_54\n      jump\t// in\n    tag_165:\n      swap1\n      0x00\n      mstore\n      keccak256(0x00, 0x20)\n      swap1\n      0x1f\n      add\n      0x20\n      swap1\n      div\n      dup2\n      add\n      swap3\n      dup3\n      tag_167\n      jumpi\n      0x00\n      dup6\n      sstore\n      jump(tag_166)\n    tag_167:\n      dup3\n      0x1f\n      lt\n      tag_168\n      jumpi\n      dup1\n      mload\n      not(0xff)\n      and\n      dup4\n      dup1\n      add\n      or\n      dup6\n      sstore\n      jump(tag_166)\n    tag_168:\n      dup3\n      dup1\n      add\n      0x01\n      add\n      dup6\n      sstore\n      dup3\n      iszero\n      tag_166\n      jumpi\n      swap2\n      dup3\n      add\n    tag_169:\n      dup3\n      dup2\n      gt\n      iszero\n      tag_170\n      jumpi\n      dup3\n      mload\n      dup3\n      sstore\n      swap2\n      0x20\n      add\n      swap2\n      swap1\n      0x01\n      add\n      swap1\n      jump(tag_169)\n    tag_170:\n    tag_166:\n      pop\n      swap1\n      pop\n      tag_171\n      swap2\n      swap1\n      tag_160\n      jump\t// in\n    tag_171:\n      pop\n      swap1\n      jump\t// out\n    tag_160:\n    tag_172:\n      dup1\n      dup3\n      gt\n      iszero\n      tag_173\n      jumpi\n      0x00\n      dup2\n      0x00\n      swap1\n      sstore\n      pop\n      0x01\n      add\n      jump(tag_172)\n    tag_173:\n      pop\n      swap1\n      jump\t// out\n        /* \"#utility.yul\":7:419   */\n    tag_175:\n        /* \"#utility.yul\":85:90   */\n      0x00\n        /* \"#utility.yul\":110:176   */\n      tag_177\n        /* \"#utility.yul\":126:175   */\n      tag_178\n        /* \"#utility.yul\":168:174   */\n      dup5\n        /* \"#utility.yul\":126:175   */\n      tag_179\n      jump\t// in\n    tag_178:\n        /* \"#utility.yul\":110:176   */\n      tag_180\n      jump\t// in\n    tag_177:\n        /* \"#utility.yul\":101:176   */\n      swap1\n      pop\n        /* \"#utility.yul\":199:205   */\n      dup3\n        /* \"#utility.yul\":192:197   */\n      dup2\n        /* \"#utility.yul\":185:206   */\n      mstore\n        /* \"#utility.yul\":237:241   */\n      0x20\n        /* \"#utility.yul\":230:235   */\n      dup2\n        /* \"#utility.yul\":226:242   */\n      add\n        /* \"#utility.yul\":275:278   */\n      dup5\n        /* \"#utility.yul\":266:272   */\n      dup5\n        /* \"#utility.yul\":261:264   */\n      dup5\n        /* \"#utility.yul\":257:273   */\n      add\n        /* \"#utility.yul\":254:279   */\n      gt\n        /* \"#utility.yul\":251:363   */\n      iszero\n      tag_181\n      jumpi\n        /* \"#utility.yul\":282:361   */\n      tag_182\n      tag_183\n      jump\t// in\n    tag_182:\n        /* \"#utility.yul\":251:363   */\n    tag_181:\n        /* \"#utility.yul\":372:413   */\n      tag_184\n        /* \"#utility.yul\":406:412   */\n      dup5\n        /* \"#utility.yul\":401:404   */\n      dup3\n        /* \"#utility.yul\":396:399   */\n      dup6\n        /* \"#utility.yul\":372:413   */\n      tag_185\n      jump\t// in\n    tag_184:\n        /* \"#utility.yul\":91:419   */\n      pop\n        /* \"#utility.yul\":7:419   */\n      swap4\n      swap3\n      pop\n      pop\n      pop\n      jump\t// out\n        /* \"#utility.yul\":439:779   */\n    tag_186:\n        /* \"#utility.yul\":495:500   */\n      0x00\n        /* \"#utility.yul\":544:547   */\n      dup3\n        /* \"#utility.yul\":537:541   */\n      0x1f\n        /* \"#utility.yul\":529:535   */\n      dup4\n        /* \"#utility.yul\":525:542   */\n      add\n        /* \"#utility.yul\":521:548   */\n      slt\n        /* \"#utility.yul\":511:633   */\n      tag_188\n      jumpi\n        /* \"#utility.yul\":552:631   */\n      tag_189\n      tag_190\n      jump\t// in\n    tag_189:\n        /* \"#utility.yul\":511:633   */\n    tag_188:\n        /* \"#utility.yul\":669:675   */\n      dup2\n        /* \"#utility.yul\":656:676   */\n      calldataload\n        /* \"#utility.yul\":694:773   */\n      tag_191\n        /* \"#utility.yul\":769:772   */\n      dup5\n        /* \"#utility.yul\":761:767   */\n      dup3\n        /* \"#utility.yul\":754:758   */\n      0x20\n        /* \"#utility.yul\":746:752   */\n      dup7\n        /* \"#utility.yul\":742:759   */\n      add\n        /* \"#utility.yul\":694:773   */\n      tag_175\n      jump\t// in\n    tag_191:\n        /* \"#utility.yul\":685:773   */\n      swap2\n      pop\n        /* \"#utility.yul\":501:779   */\n      pop\n        /* \"#utility.yul\":439:779   */\n      swap3\n      swap2\n      pop\n      pop\n      jump\t// out\n        /* \"#utility.yul\":785:924   */\n    tag_192:\n        /* \"#utility.yul\":831:836   */\n      0x00\n        /* \"#utility.yul\":869:875   */\n      dup2\n        /* \"#utility.yul\":856:876   */\n      calldataload\n        /* \"#utility.yul\":847:876   */\n      swap1\n      pop\n        /* \"#utility.yul\":885:918   */\n      tag_194\n        /* \"#utility.yul\":912:917   */\n      dup2\n        /* \"#utility.yul\":885:918   */\n      tag_195\n      jump\t// in\n    tag_194:\n        /* \"#utility.yul\":785:924   */\n      swap3\n      swap2\n      pop\n      pop\n      jump\t// out\n        /* \"#utility.yul\":930:1439   */\n    tag_31:\n        /* \"#utility.yul\":999:1005   */\n      0x00\n        /* \"#utility.yul\":1048:1050   */\n      0x20\n        /* \"#utility.yul\":1036:1045   */\n      dup3\n        /* \"#utility.yul\":1027:1034   */\n      dup5\n        /* \"#utility.yul\":1023:1046   */\n      sub\n        /* \"#utility.yul\":1019:1051   */\n      slt\n        /* \"#utility.yul\":1016:1135   */\n      iszero\n      tag_197\n      jumpi\n        /* \"#utility.yul\":1054:1133   */\n      tag_198\n      tag_199\n      jump\t// in\n    tag_198:\n        /* \"#utility.yul\":1016:1135   */\n    tag_197:\n        /* \"#utility.yul\":1202:1203   */\n      0x00\n        /* \"#utility.yul\":1191:1200   */\n      dup3\n        /* \"#utility.yul\":1187:1204   */\n      add\n        /* \"#utility.yul\":1174:1205   */\n      calldataload\n        /* \"#utility.yul\":1232:1250   */\n      0xffffffffffffffff\n        /* \"#utility.yul\":1224:1230   */\n      dup2\n        /* \"#utility.yul\":1221:1251   */\n      gt\n        /* \"#utility.yul\":1218:1335   */\n      iszero\n      tag_200\n      jumpi\n        /* \"#utility.yul\":1254:1333   */\n      tag_201\n      tag_202\n      jump\t// in\n    tag_201:\n        /* \"#utility.yul\":1218:1335   */\n    tag_200:\n        /* \"#utility.yul\":1359:1422   */\n      tag_203\n        /* \"#utility.yul\":1414:1421   */\n      dup5\n        /* \"#utility.yul\":1405:1411   */\n      dup3\n        /* \"#utility.yul\":1394:1403   */\n      dup6\n        /* \"#utility.yul\":1390:1412   */\n      add\n        /* \"#utility.yul\":1359:1422   */\n      tag_186\n      jump\t// in\n    tag_203:\n        /* \"#utility.yul\":1349:1422   */\n      swap2\n      pop\n        /* \"#utility.yul\":1145:1432   */\n      pop\n        /* \"#utility.yul\":930:1439   */\n      swap3\n      swap2\n      pop\n      pop\n      jump\t// out\n        /* \"#utility.yul\":1445:1774   */\n    tag_11:\n        /* \"#utility.yul\":1504:1510   */\n      0x00\n        /* \"#utility.yul\":1553:1555   */\n      0x20\n        /* \"#utility.yul\":1541:1550   */\n      dup3\n        /* \"#utility.yul\":1532:1539   */\n      dup5\n        /* \"#utility.yul\":1528:1551   */\n      sub\n        /* \"#utility.yul\":1524:1556   */\n      slt\n        /* \"#utility.yul\":1521:1640   */\n      iszero\n      tag_205\n      jumpi\n        /* \"#utility.yul\":1559:1638   */\n      tag_206\n      tag_199\n      jump\t// in\n    tag_206:\n        /* \"#utility.yul\":1521:1640   */\n    tag_205:\n        /* \"#utility.yul\":1679:1680   */\n      0x00\n        /* \"#utility.yul\":1704:1757   */\n      tag_207\n        /* \"#utility.yul\":1749:1756   */\n      dup5\n        /* \"#utility.yul\":1740:1746   */\n      dup3\n        /* \"#utility.yul\":1729:1738   */\n      dup6\n        /* \"#utility.yul\":1725:1747   */\n      add\n        /* \"#utility.yul\":1704:1757   */\n      tag_192\n      jump\t// in\n    tag_207:\n        /* \"#utility.yul\":1694:1757   */\n      swap2\n      pop\n        /* \"#utility.yul\":1650:1767   */\n      pop\n        /* \"#utility.yul\":1445:1774   */\n      swap3\n      swap2\n      pop\n      pop\n      jump\t// out\n        /* \"#utility.yul\":1780:2434   */\n    tag_27:\n        /* \"#utility.yul\":1858:1864   */\n      0x00\n        /* \"#utility.yul\":1866:1872   */\n      dup1\n        /* \"#utility.yul\":1915:1917   */\n      0x40\n        /* \"#utility.yul\":1903:1912   */\n      dup4\n        /* \"#utility.yul\":1894:1901   */\n      dup6\n        /* \"#utility.yul\":1890:1913   */\n      sub\n        /* \"#utility.yul\":1886:1918   */\n      slt\n        /* \"#utility.yul\":1883:2002   */\n      iszero\n      tag_209\n      jumpi\n        /* \"#utility.yul\":1921:2000   */\n      tag_210\n      tag_199\n      jump\t// in\n    tag_210:\n        /* \"#utility.yul\":1883:2002   */\n    tag_209:\n        /* \"#utility.yul\":2041:2042   */\n      0x00\n        /* \"#utility.yul\":2066:2119   */\n      tag_211\n        /* \"#utility.yul\":2111:2118   */\n      dup6\n        /* \"#utility.yul\":2102:2108   */\n      dup3\n        /* \"#utility.yul\":2091:2100   */\n      dup7\n        /* \"#utility.yul\":2087:2109   */\n      add\n        /* \"#utility.yul\":2066:2119   */\n      tag_192\n      jump\t// in\n    tag_211:\n        /* \"#utility.yul\":2056:2119   */\n      swap3\n      pop\n        /* \"#utility.yul\":2012:2129   */\n      pop\n        /* \"#utility.yul\":2196:2198   */\n      0x20\n        /* \"#utility.yul\":2185:2194   */\n      dup4\n        /* \"#utility.yul\":2181:2199   */\n      add\n        /* \"#utility.yul\":2168:2200   */\n      calldataload\n        /* \"#utility.yul\":2227:2245   */\n      0xffffffffffffffff\n        /* \"#utility.yul\":2219:2225   */\n      dup2\n        /* \"#utility.yul\":2216:2246   */\n      gt\n        /* \"#utility.yul\":2213:2330   */\n      iszero\n      tag_212\n      jumpi\n        /* \"#utility.yul\":2249:2328   */\n      tag_213\n      tag_202\n      jump\t// in\n    tag_213:\n        /* \"#utility.yul\":2213:2330   */\n    tag_212:\n        /* \"#utility.yul\":2354:2417   */\n      tag_214\n        /* \"#utility.yul\":2409:2416   */\n      dup6\n        /* \"#utility.yul\":2400:2406   */\n      dup3\n        /* \"#utility.yul\":2389:2398   */\n      dup7\n        /* \"#utility.yul\":2385:2407   */\n      add\n        /* \"#utility.yul\":2354:2417   */\n      tag_186\n      jump\t// in\n    tag_214:\n        /* \"#utility.yul\":2344:2417   */\n      swap2\n      pop\n        /* \"#utility.yul\":2139:2427   */\n      pop\n        /* \"#utility.yul\":1780:2434   */\n      swap3\n      pop\n      swap3\n      swap1\n      pop\n      jump\t// out\n        /* \"#utility.yul\":2440:2676   */\n    tag_215:\n        /* \"#utility.yul\":2549:2559   */\n      0x00\n        /* \"#utility.yul\":2584:2670   */\n      tag_217\n        /* \"#utility.yul\":2666:2669   */\n      dup4\n        /* \"#utility.yul\":2658:2664   */\n      dup4\n        /* \"#utility.yul\":2584:2670   */\n      tag_218\n      jump\t// in\n    tag_217:\n        /* \"#utility.yul\":2570:2670   */\n      swap1\n      pop\n        /* \"#utility.yul\":2440:2676   */\n      swap3\n      swap2\n      pop\n      pop\n      jump\t// out\n        /* \"#utility.yul\":2682:2790   */\n    tag_219:\n        /* \"#utility.yul\":2759:2783   */\n      tag_221\n        /* \"#utility.yul\":2777:2782   */\n      dup2\n        /* \"#utility.yul\":2759:2783   */\n      tag_222\n      jump\t// in\n    tag_221:\n        /* \"#utility.yul\":2754:2757   */\n      dup3\n        /* \"#utility.yul\":2747:2784   */\n      mstore\n        /* \"#utility.yul\":2682:2790   */\n      pop\n      pop\n      jump\t// out\n        /* \"#utility.yul\":2796:2914   */\n    tag_223:\n        /* \"#utility.yul\":2883:2907   */\n      tag_225\n        /* \"#utility.yul\":2901:2906   */\n      dup2\n        /* \"#utility.yul\":2883:2907   */\n      tag_222\n      jump\t// in\n    tag_225:\n        /* \"#utility.yul\":2878:2881   */\n      dup3\n        /* \"#utility.yul\":2871:2908   */\n      mstore\n        /* \"#utility.yul\":2796:2914   */\n      pop\n      pop\n      jump\t// out\n        /* \"#utility.yul\":2976:4047   */\n    tag_226:\n        /* \"#utility.yul\":3135:3138   */\n      0x00\n        /* \"#utility.yul\":3164:3238   */\n      tag_228\n        /* \"#utility.yul\":3232:3237   */\n      dup3\n        /* \"#utility.yul\":3164:3238   */\n      tag_229\n      jump\t// in\n    tag_228:\n        /* \"#utility.yul\":3254:3360   */\n      tag_230\n        /* \"#utility.yul\":3353:3359   */\n      dup2\n        /* \"#utility.yul\":3348:3351   */\n      dup6\n        /* \"#utility.yul\":3254:3360   */\n      tag_231\n      jump\t// in\n    tag_230:\n        /* \"#utility.yul\":3247:3360   */\n      swap4\n      pop\n        /* \"#utility.yul\":3386:3389   */\n      dup4\n        /* \"#utility.yul\":3431:3435   */\n      0x20\n        /* \"#utility.yul\":3423:3429   */\n      dup3\n        /* \"#utility.yul\":3419:3436   */\n      mul\n        /* \"#utility.yul\":3414:3417   */\n      dup6\n        /* \"#utility.yul\":3410:3437   */\n      add\n        /* \"#utility.yul\":3461:3537   */\n      tag_232\n        /* \"#utility.yul\":3531:3536   */\n      dup6\n        /* \"#utility.yul\":3461:3537   */\n      tag_233\n      jump\t// in\n    tag_232:\n        /* \"#utility.yul\":3560:3567   */\n      dup1\n        /* \"#utility.yul\":3591:3592   */\n      0x00\n        /* \"#utility.yul\":3576:4002   */\n    tag_234:\n        /* \"#utility.yul\":3601:3607   */\n      dup6\n        /* \"#utility.yul\":3598:3599   */\n      dup2\n        /* \"#utility.yul\":3595:3608   */\n      lt\n        /* \"#utility.yul\":3576:4002   */\n      iszero\n      tag_236\n      jumpi\n        /* \"#utility.yul\":3672:3681   */\n      dup5\n        /* \"#utility.yul\":3666:3670   */\n      dup5\n        /* \"#utility.yul\":3662:3682   */\n      sub\n        /* \"#utility.yul\":3657:3660   */\n      dup10\n        /* \"#utility.yul\":3650:3683   */\n      mstore\n        /* \"#utility.yul\":3723:3729   */\n      dup2\n        /* \"#utility.yul\":3717:3730   */\n      mload\n        /* \"#utility.yul\":3751:3855   */\n      tag_237\n        /* \"#utility.yul\":3850:3854   */\n      dup6\n        /* \"#utility.yul\":3835:3848   */\n      dup3\n        /* \"#utility.yul\":3751:3855   */\n      tag_215\n      jump\t// in\n    tag_237:\n        /* \"#utility.yul\":3743:3855   */\n      swap5\n      pop\n        /* \"#utility.yul\":3878:3958   */\n      tag_238\n        /* \"#utility.yul\":3951:3957   */\n      dup4\n        /* \"#utility.yul\":3878:3958   */\n      tag_239\n      jump\t// in\n    tag_238:\n        /* \"#utility.yul\":3868:3958   */\n      swap3\n      pop\n        /* \"#utility.yul\":3987:3991   */\n      0x20\n        /* \"#utility.yul\":3982:3985   */\n      dup11\n        /* \"#utility.yul\":3978:3992   */\n      add\n        /* \"#utility.yul\":3971:3992   */\n      swap10\n      pop\n        /* \"#utility.yul\":3636:4002   */\n      pop\n        /* \"#utility.yul\":3623:3624   */\n      0x01\n        /* \"#utility.yul\":3620:3621   */\n      dup2\n        /* \"#utility.yul\":3616:3625   */\n      add\n        /* \"#utility.yul\":3611:3625   */\n      swap1\n      pop\n        /* \"#utility.yul\":3576:4002   */\n      jump(tag_234)\n    tag_236:\n        /* \"#utility.yul\":3580:3594   */\n      pop\n        /* \"#utility.yul\":4018:4022   */\n      dup3\n        /* \"#utility.yul\":4011:4022   */\n      swap8\n      pop\n        /* \"#utility.yul\":4038:4041   */\n      dup8\n        /* \"#utility.yul\":4031:4041   */\n      swap6\n      pop\n        /* \"#utility.yul\":3140:4047   */\n      pop\n      pop\n      pop\n      pop\n      pop\n        /* \"#utility.yul\":2976:4047   */\n      swap3\n      swap2\n      pop\n      pop\n      jump\t// out\n        /* \"#utility.yul\":4053:4152   */\n    tag_240:\n        /* \"#utility.yul\":4124:4145   */\n      tag_242\n        /* \"#utility.yul\":4139:4144   */\n      dup2\n        /* \"#utility.yul\":4124:4145   */\n      tag_243\n      jump\t// in\n    tag_242:\n        /* \"#utility.yul\":4119:4122   */\n      dup3\n        /* \"#utility.yul\":4112:4146   */\n      mstore\n        /* \"#utility.yul\":4053:4152   */\n      pop\n      pop\n      jump\t// out\n        /* \"#utility.yul\":4158:4267   */\n    tag_244:\n        /* \"#utility.yul\":4239:4260   */\n      tag_246\n        /* \"#utility.yul\":4254:4259   */\n      dup2\n        /* \"#utility.yul\":4239:4260   */\n      tag_243\n      jump\t// in\n    tag_246:\n        /* \"#utility.yul\":4234:4237   */\n      dup3\n        /* \"#utility.yul\":4227:4261   */\n      mstore\n        /* \"#utility.yul\":4158:4267   */\n      pop\n      pop\n      jump\t// out\n        /* \"#utility.yul\":4273:4617   */\n    tag_247:\n        /* \"#utility.yul\":4351:4354   */\n      0x00\n        /* \"#utility.yul\":4379:4418   */\n      tag_249\n        /* \"#utility.yul\":4412:4417   */\n      dup3\n        /* \"#utility.yul\":4379:4418   */\n      tag_250\n      jump\t// in\n    tag_249:\n        /* \"#utility.yul\":4434:4495   */\n      tag_251\n        /* \"#utility.yul\":4488:4494   */\n      dup2\n        /* \"#utility.yul\":4483:4486   */\n      dup6\n        /* \"#utility.yul\":4434:4495   */\n      tag_252\n      jump\t// in\n    tag_251:\n        /* \"#utility.yul\":4427:4495   */\n      swap4\n      pop\n        /* \"#utility.yul\":4504:4556   */\n      tag_253\n        /* \"#utility.yul\":4549:4555   */\n      dup2\n        /* \"#utility.yul\":4544:4547   */\n      dup6\n        /* \"#utility.yul\":4537:4541   */\n      0x20\n        /* \"#utility.yul\":4530:4535   */\n      dup7\n        /* \"#utility.yul\":4526:4542   */\n      add\n        /* \"#utility.yul\":4504:4556   */\n      tag_254\n      jump\t// in\n    tag_253:\n        /* \"#utility.yul\":4581:4610   */\n      tag_255\n        /* \"#utility.yul\":4603:4609   */\n      dup2\n        /* \"#utility.yul\":4581:4610   */\n      tag_256\n      jump\t// in\n    tag_255:\n        /* \"#utility.yul\":4576:4579   */\n      dup5\n        /* \"#utility.yul\":4572:4611   */\n      add\n        /* \"#utility.yul\":4565:4611   */\n      swap2\n      pop\n        /* \"#utility.yul\":4355:4617   */\n      pop\n        /* \"#utility.yul\":4273:4617   */\n      swap3\n      swap2\n      pop\n      pop\n      jump\t// out\n        /* \"#utility.yul\":4623:4987   */\n    tag_257:\n        /* \"#utility.yul\":4711:4714   */\n      0x00\n        /* \"#utility.yul\":4739:4778   */\n      tag_259\n        /* \"#utility.yul\":4772:4777   */\n      dup3\n        /* \"#utility.yul\":4739:4778   */\n      tag_250\n      jump\t// in\n    tag_259:\n        /* \"#utility.yul\":4794:4865   */\n      tag_260\n        /* \"#utility.yul\":4858:4864   */\n      dup2\n        /* \"#utility.yul\":4853:4856   */\n      dup6\n        /* \"#utility.yul\":4794:4865   */\n      tag_261\n      jump\t// in\n    tag_260:\n        /* \"#utility.yul\":4787:4865   */\n      swap4\n      pop\n        /* \"#utility.yul\":4874:4926   */\n      tag_262\n        /* \"#utility.yul\":4919:4925   */\n      dup2\n        /* \"#utility.yul\":4914:4917   */\n      dup6\n        /* \"#utility.yul\":4907:4911   */\n      0x20\n        /* \"#utility.yul\":4900:4905   */\n      dup7\n        /* \"#utility.yul\":4896:4912   */\n      add\n        /* \"#utility.yul\":4874:4926   */\n      tag_254\n      jump\t// in\n    tag_262:\n        /* \"#utility.yul\":4951:4980   */\n      tag_263\n        /* \"#utility.yul\":4973:4979   */\n      dup2\n        /* \"#utility.yul\":4951:4980   */\n      tag_256\n      jump\t// in\n    tag_263:\n        /* \"#utility.yul\":4946:4949   */\n      dup5\n        /* \"#utility.yul\":4942:4981   */\n      add\n        /* \"#utility.yul\":4935:4981   */\n      swap2\n      pop\n        /* \"#utility.yul\":4715:4987   */\n      pop\n        /* \"#utility.yul\":4623:4987   */\n      swap3\n      swap2\n      pop\n      pop\n      jump\t// out\n        /* \"#utility.yul\":4993:5370   */\n    tag_264:\n        /* \"#utility.yul\":5099:5102   */\n      0x00\n        /* \"#utility.yul\":5127:5166   */\n      tag_266\n        /* \"#utility.yul\":5160:5165   */\n      dup3\n        /* \"#utility.yul\":5127:5166   */\n      tag_250\n      jump\t// in\n    tag_266:\n        /* \"#utility.yul\":5182:5271   */\n      tag_267\n        /* \"#utility.yul\":5264:5270   */\n      dup2\n        /* \"#utility.yul\":5259:5262   */\n      dup6\n        /* \"#utility.yul\":5182:5271   */\n      tag_268\n      jump\t// in\n    tag_267:\n        /* \"#utility.yul\":5175:5271   */\n      swap4\n      pop\n        /* \"#utility.yul\":5280:5332   */\n      tag_269\n        /* \"#utility.yul\":5325:5331   */\n      dup2\n        /* \"#utility.yul\":5320:5323   */\n      dup6\n        /* \"#utility.yul\":5313:5317   */\n      0x20\n        /* \"#utility.yul\":5306:5311   */\n      dup7\n        /* \"#utility.yul\":5302:5318   */\n      add\n        /* \"#utility.yul\":5280:5332   */\n      tag_254\n      jump\t// in\n    tag_269:\n        /* \"#utility.yul\":5357:5363   */\n      dup1\n        /* \"#utility.yul\":5352:5355   */\n      dup5\n        /* \"#utility.yul\":5348:5364   */\n      add\n        /* \"#utility.yul\":5341:5364   */\n      swap2\n      pop\n        /* \"#utility.yul\":5103:5370   */\n      pop\n        /* \"#utility.yul\":4993:5370   */\n      swap3\n      swap2\n      pop\n      pop\n      jump\t// out\n        /* \"#utility.yul\":5376:5742   */\n    tag_270:\n        /* \"#utility.yul\":5518:5521   */\n      0x00\n        /* \"#utility.yul\":5539:5606   */\n      tag_272\n        /* \"#utility.yul\":5603:5605   */\n      0x1e\n        /* \"#utility.yul\":5598:5601   */\n      dup4\n        /* \"#utility.yul\":5539:5606   */\n      tag_261\n      jump\t// in\n    tag_272:\n        /* \"#utility.yul\":5532:5606   */\n      swap2\n      pop\n        /* \"#utility.yul\":5615:5708   */\n      tag_273\n        /* \"#utility.yul\":5704:5707   */\n      dup3\n        /* \"#utility.yul\":5615:5708   */\n      tag_274\n      jump\t// in\n    tag_273:\n        /* \"#utility.yul\":5733:5735   */\n      0x20\n        /* \"#utility.yul\":5728:5731   */\n      dup3\n        /* \"#utility.yul\":5724:5736   */\n      add\n        /* \"#utility.yul\":5717:5736   */\n      swap1\n      pop\n        /* \"#utility.yul\":5376:5742   */\n      swap2\n      swap1\n      pop\n      jump\t// out\n        /* \"#utility.yul\":5800:7088   */\n    tag_218:\n        /* \"#utility.yul\":5899:5902   */\n      0x00\n        /* \"#utility.yul\":5935:5939   */\n      0xc0\n        /* \"#utility.yul\":5930:5933   */\n      dup4\n        /* \"#utility.yul\":5926:5940   */\n      add\n        /* \"#utility.yul\":6020:6024   */\n      0x00\n        /* \"#utility.yul\":6013:6018   */\n      dup4\n        /* \"#utility.yul\":6009:6025   */\n      add\n        /* \"#utility.yul\":6003:6026   */\n      mload\n        /* \"#utility.yul\":6039:6102   */\n      tag_276\n        /* \"#utility.yul\":6096:6100   */\n      0x00\n        /* \"#utility.yul\":6091:6094   */\n      dup7\n        /* \"#utility.yul\":6087:6101   */\n      add\n        /* \"#utility.yul\":6073:6085   */\n      dup3\n        /* \"#utility.yul\":6039:6102   */\n      tag_277\n      jump\t// in\n    tag_276:\n        /* \"#utility.yul\":5950:6112   */\n      pop\n        /* \"#utility.yul\":6195:6199   */\n      0x20\n        /* \"#utility.yul\":6188:6193   */\n      dup4\n        /* \"#utility.yul\":6184:6200   */\n      add\n        /* \"#utility.yul\":6178:6201   */\n      mload\n        /* \"#utility.yul\":6214:6277   */\n      tag_278\n        /* \"#utility.yul\":6271:6275   */\n      0x20\n        /* \"#utility.yul\":6266:6269   */\n      dup7\n        /* \"#utility.yul\":6262:6276   */\n      add\n        /* \"#utility.yul\":6248:6260   */\n      dup3\n        /* \"#utility.yul\":6214:6277   */\n      tag_219\n      jump\t// in\n    tag_278:\n        /* \"#utility.yul\":6122:6287   */\n      pop\n        /* \"#utility.yul\":6369:6373   */\n      0x40\n        /* \"#utility.yul\":6362:6367   */\n      dup4\n        /* \"#utility.yul\":6358:6374   */\n      add\n        /* \"#utility.yul\":6352:6375   */\n      mload\n        /* \"#utility.yul\":6422:6425   */\n      dup5\n        /* \"#utility.yul\":6416:6420   */\n      dup3\n        /* \"#utility.yul\":6412:6426   */\n      sub\n        /* \"#utility.yul\":6405:6409   */\n      0x40\n        /* \"#utility.yul\":6400:6403   */\n      dup7\n        /* \"#utility.yul\":6396:6410   */\n      add\n        /* \"#utility.yul\":6389:6427   */\n      mstore\n        /* \"#utility.yul\":6448:6521   */\n      tag_279\n        /* \"#utility.yul\":6516:6520   */\n      dup3\n        /* \"#utility.yul\":6502:6514   */\n      dup3\n        /* \"#utility.yul\":6448:6521   */\n      tag_247\n      jump\t// in\n    tag_279:\n        /* \"#utility.yul\":6440:6521   */\n      swap2\n      pop\n        /* \"#utility.yul\":6297:6532   */\n      pop\n        /* \"#utility.yul\":6619:6623   */\n      0x60\n        /* \"#utility.yul\":6612:6617   */\n      dup4\n        /* \"#utility.yul\":6608:6624   */\n      add\n        /* \"#utility.yul\":6602:6625   */\n      mload\n        /* \"#utility.yul\":6638:6695   */\n      tag_280\n        /* \"#utility.yul\":6689:6693   */\n      0x60\n        /* \"#utility.yul\":6684:6687   */\n      dup7\n        /* \"#utility.yul\":6680:6694   */\n      add\n        /* \"#utility.yul\":6666:6678   */\n      dup3\n        /* \"#utility.yul\":6638:6695   */\n      tag_240\n      jump\t// in\n    tag_280:\n        /* \"#utility.yul\":6542:6705   */\n      pop\n        /* \"#utility.yul\":6792:6796   */\n      0x80\n        /* \"#utility.yul\":6785:6790   */\n      dup4\n        /* \"#utility.yul\":6781:6797   */\n      add\n        /* \"#utility.yul\":6775:6798   */\n      mload\n        /* \"#utility.yul\":6811:6874   */\n      tag_281\n        /* \"#utility.yul\":6868:6872   */\n      0x80\n        /* \"#utility.yul\":6863:6866   */\n      dup7\n        /* \"#utility.yul\":6859:6873   */\n      add\n        /* \"#utility.yul\":6845:6857   */\n      dup3\n        /* \"#utility.yul\":6811:6874   */\n      tag_277\n      jump\t// in\n    tag_281:\n        /* \"#utility.yul\":6715:6884   */\n      pop\n        /* \"#utility.yul\":6969:6973   */\n      0xa0\n        /* \"#utility.yul\":6962:6967   */\n      dup4\n        /* \"#utility.yul\":6958:6974   */\n      add\n        /* \"#utility.yul\":6952:6975   */\n      mload\n        /* \"#utility.yul\":6988:7051   */\n      tag_282\n        /* \"#utility.yul\":7045:7049   */\n      0xa0\n        /* \"#utility.yul\":7040:7043   */\n      dup7\n        /* \"#utility.yul\":7036:7050   */\n      add\n        /* \"#utility.yul\":7022:7034   */\n      dup3\n        /* \"#utility.yul\":6988:7051   */\n      tag_277\n      jump\t// in\n    tag_282:\n        /* \"#utility.yul\":6894:7061   */\n      pop\n        /* \"#utility.yul\":7078:7082   */\n      dup1\n        /* \"#utility.yul\":7071:7082   */\n      swap2\n      pop\n        /* \"#utility.yul\":5904:7088   */\n      pop\n        /* \"#utility.yul\":5800:7088   */\n      swap3\n      swap2\n      pop\n      pop\n      jump\t// out\n        /* \"#utility.yul\":7094:7202   */\n    tag_277:\n        /* \"#utility.yul\":7171:7195   */\n      tag_284\n        /* \"#utility.yul\":7189:7194   */\n      dup2\n        /* \"#utility.yul\":7171:7195   */\n      tag_285\n      jump\t// in\n    tag_284:\n        /* \"#utility.yul\":7166:7169   */\n      dup3\n        /* \"#utility.yul\":7159:7196   */\n      mstore\n        /* \"#utility.yul\":7094:7202   */\n      pop\n      pop\n      jump\t// out\n        /* \"#utility.yul\":7208:7326   */\n    tag_286:\n        /* \"#utility.yul\":7295:7319   */\n      tag_288\n        /* \"#utility.yul\":7313:7318   */\n      dup2\n        /* \"#utility.yul\":7295:7319   */\n      tag_285\n      jump\t// in\n    tag_288:\n        /* \"#utility.yul\":7290:7293   */\n      dup3\n        /* \"#utility.yul\":7283:7320   */\n      mstore\n        /* \"#utility.yul\":7208:7326   */\n      pop\n      pop\n      jump\t// out\n        /* \"#utility.yul\":7332:7607   */\n    tag_118:\n        /* \"#utility.yul\":7464:7467   */\n      0x00\n        /* \"#utility.yul\":7486:7581   */\n      tag_290\n        /* \"#utility.yul\":7577:7580   */\n      dup3\n        /* \"#utility.yul\":7568:7574   */\n      dup5\n        /* \"#utility.yul\":7486:7581   */\n      tag_264\n      jump\t// in\n    tag_290:\n        /* \"#utility.yul\":7479:7581   */\n      swap2\n      pop\n        /* \"#utility.yul\":7598:7601   */\n      dup2\n        /* \"#utility.yul\":7591:7601   */\n      swap1\n      pop\n        /* \"#utility.yul\":7332:7607   */\n      swap3\n      swap2\n      pop\n      pop\n      jump\t// out\n        /* \"#utility.yul\":7613:8066   */\n    tag_24:\n        /* \"#utility.yul\":7796:7800   */\n      0x00\n        /* \"#utility.yul\":7834:7836   */\n      0x20\n        /* \"#utility.yul\":7823:7832   */\n      dup3\n        /* \"#utility.yul\":7819:7837   */\n      add\n        /* \"#utility.yul\":7811:7837   */\n      swap1\n      pop\n        /* \"#utility.yul\":7883:7892   */\n      dup2\n        /* \"#utility.yul\":7877:7881   */\n      dup2\n        /* \"#utility.yul\":7873:7893   */\n      sub\n        /* \"#utility.yul\":7869:7870   */\n      0x00\n        /* \"#utility.yul\":7858:7867   */\n      dup4\n        /* \"#utility.yul\":7854:7871   */\n      add\n        /* \"#utility.yul\":7847:7894   */\n      mstore\n        /* \"#utility.yul\":7911:8059   */\n      tag_292\n        /* \"#utility.yul\":8054:8058   */\n      dup2\n        /* \"#utility.yul\":8045:8051   */\n      dup5\n        /* \"#utility.yul\":7911:8059   */\n      tag_226\n      jump\t// in\n    tag_292:\n        /* \"#utility.yul\":7903:8059   */\n      swap1\n      pop\n        /* \"#utility.yul\":7613:8066   */\n      swap3\n      swap2\n      pop\n      pop\n      jump\t// out\n        /* \"#utility.yul\":8072:8491   */\n    tag_152:\n        /* \"#utility.yul\":8238:8242   */\n      0x00\n        /* \"#utility.yul\":8276:8278   */\n      0x20\n        /* \"#utility.yul\":8265:8274   */\n      dup3\n        /* \"#utility.yul\":8261:8279   */\n      add\n        /* \"#utility.yul\":8253:8279   */\n      swap1\n      pop\n        /* \"#utility.yul\":8325:8334   */\n      dup2\n        /* \"#utility.yul\":8319:8323   */\n      dup2\n        /* \"#utility.yul\":8315:8335   */\n      sub\n        /* \"#utility.yul\":8311:8312   */\n      0x00\n        /* \"#utility.yul\":8300:8309   */\n      dup4\n        /* \"#utility.yul\":8296:8313   */\n      add\n        /* \"#utility.yul\":8289:8336   */\n      mstore\n        /* \"#utility.yul\":8353:8484   */\n      tag_294\n        /* \"#utility.yul\":8479:8483   */\n      dup2\n        /* \"#utility.yul\":8353:8484   */\n      tag_270\n      jump\t// in\n    tag_294:\n        /* \"#utility.yul\":8345:8484   */\n      swap1\n      pop\n        /* \"#utility.yul\":8072:8491   */\n      swap2\n      swap1\n      pop\n      jump\t// out\n        /* \"#utility.yul\":8497:8719   */\n    tag_120:\n        /* \"#utility.yul\":8590:8594   */\n      0x00\n        /* \"#utility.yul\":8628:8630   */\n      0x20\n        /* \"#utility.yul\":8617:8626   */\n      dup3\n        /* \"#utility.yul\":8613:8631   */\n      add\n        /* \"#utility.yul\":8605:8631   */\n      swap1\n      pop\n        /* \"#utility.yul\":8641:8712   */\n      tag_296\n        /* \"#utility.yul\":8709:8710   */\n      0x00\n        /* \"#utility.yul\":8698:8707   */\n      dup4\n        /* \"#utility.yul\":8694:8711   */\n      add\n        /* \"#utility.yul\":8685:8691   */\n      dup5\n        /* \"#utility.yul\":8641:8712   */\n      tag_286\n      jump\t// in\n    tag_296:\n        /* \"#utility.yul\":8497:8719   */\n      swap3\n      swap2\n      pop\n      pop\n      jump\t// out\n        /* \"#utility.yul\":8725:9579   */\n    tag_20:\n        /* \"#utility.yul\":8972:8976   */\n      0x00\n        /* \"#utility.yul\":9010:9013   */\n      0xc0\n        /* \"#utility.yul\":8999:9008   */\n      dup3\n        /* \"#utility.yul\":8995:9014   */\n      add\n        /* \"#utility.yul\":8987:9014   */\n      swap1\n      pop\n        /* \"#utility.yul\":9024:9095   */\n      tag_298\n        /* \"#utility.yul\":9092:9093   */\n      0x00\n        /* \"#utility.yul\":9081:9090   */\n      dup4\n        /* \"#utility.yul\":9077:9094   */\n      add\n        /* \"#utility.yul\":9068:9074   */\n      dup10\n        /* \"#utility.yul\":9024:9095   */\n      tag_286\n      jump\t// in\n    tag_298:\n        /* \"#utility.yul\":9105:9177   */\n      tag_299\n        /* \"#utility.yul\":9173:9175   */\n      0x20\n        /* \"#utility.yul\":9162:9171   */\n      dup4\n        /* \"#utility.yul\":9158:9176   */\n      add\n        /* \"#utility.yul\":9149:9155   */\n      dup9\n        /* \"#utility.yul\":9105:9177   */\n      tag_223\n      jump\t// in\n    tag_299:\n        /* \"#utility.yul\":9224:9233   */\n      dup2\n        /* \"#utility.yul\":9218:9222   */\n      dup2\n        /* \"#utility.yul\":9214:9234   */\n      sub\n        /* \"#utility.yul\":9209:9211   */\n      0x40\n        /* \"#utility.yul\":9198:9207   */\n      dup4\n        /* \"#utility.yul\":9194:9212   */\n      add\n        /* \"#utility.yul\":9187:9235   */\n      mstore\n        /* \"#utility.yul\":9252:9330   */\n      tag_300\n        /* \"#utility.yul\":9325:9329   */\n      dup2\n        /* \"#utility.yul\":9316:9322   */\n      dup8\n        /* \"#utility.yul\":9252:9330   */\n      tag_257\n      jump\t// in\n    tag_300:\n        /* \"#utility.yul\":9244:9330   */\n      swap1\n      pop\n        /* \"#utility.yul\":9340:9406   */\n      tag_301\n        /* \"#utility.yul\":9402:9404   */\n      0x60\n        /* \"#utility.yul\":9391:9400   */\n      dup4\n        /* \"#utility.yul\":9387:9405   */\n      add\n        /* \"#utility.yul\":9378:9384   */\n      dup7\n        /* \"#utility.yul\":9340:9406   */\n      tag_244\n      jump\t// in\n    tag_301:\n        /* \"#utility.yul\":9416:9489   */\n      tag_302\n        /* \"#utility.yul\":9484:9487   */\n      0x80\n        /* \"#utility.yul\":9473:9482   */\n      dup4\n        /* \"#utility.yul\":9469:9488   */\n      add\n        /* \"#utility.yul\":9460:9466   */\n      dup6\n        /* \"#utility.yul\":9416:9489   */\n      tag_286\n      jump\t// in\n    tag_302:\n        /* \"#utility.yul\":9499:9572   */\n      tag_303\n        /* \"#utility.yul\":9567:9570   */\n      0xa0\n        /* \"#utility.yul\":9556:9565   */\n      dup4\n        /* \"#utility.yul\":9552:9571   */\n      add\n        /* \"#utility.yul\":9543:9549   */\n      dup5\n        /* \"#utility.yul\":9499:9572   */\n      tag_286\n      jump\t// in\n    tag_303:\n        /* \"#utility.yul\":8725:9579   */\n      swap8\n      swap7\n      pop\n      pop\n      pop\n      pop\n      pop\n      pop\n      pop\n      jump\t// out\n        /* \"#utility.yul\":9585:9714   */\n    tag_180:\n        /* \"#utility.yul\":9619:9625   */\n      0x00\n        /* \"#utility.yul\":9646:9666   */\n      tag_305\n      tag_306\n      jump\t// in\n    tag_305:\n        /* \"#utility.yul\":9636:9666   */\n      swap1\n      pop\n        /* \"#utility.yul\":9675:9708   */\n      tag_307\n        /* \"#utility.yul\":9703:9707   */\n      dup3\n        /* \"#utility.yul\":9695:9701   */\n      dup3\n        /* \"#utility.yul\":9675:9708   */\n      tag_308\n      jump\t// in\n    tag_307:\n        /* \"#utility.yul\":9585:9714   */\n      swap2\n      swap1\n      pop\n      jump\t// out\n        /* \"#utility.yul\":9720:9795   */\n    tag_306:\n        /* \"#utility.yul\":9753:9759   */\n      0x00\n        /* \"#utility.yul\":9786:9788   */\n      0x40\n        /* \"#utility.yul\":9780:9789   */\n      mload\n        /* \"#utility.yul\":9770:9789   */\n      swap1\n      pop\n        /* \"#utility.yul\":9720:9795   */\n      swap1\n      jump\t// out\n        /* \"#utility.yul\":9801:10109   */\n    tag_179:\n        /* \"#utility.yul\":9863:9867   */\n      0x00\n        /* \"#utility.yul\":9953:9971   */\n      0xffffffffffffffff\n        /* \"#utility.yul\":9945:9951   */\n      dup3\n        /* \"#utility.yul\":9942:9972   */\n      gt\n        /* \"#utility.yul\":9939:9995   */\n      iszero\n      tag_311\n      jumpi\n        /* \"#utility.yul\":9975:9993   */\n      tag_312\n      tag_83\n      jump\t// in\n    tag_312:\n        /* \"#utility.yul\":9939:9995   */\n    tag_311:\n        /* \"#utility.yul\":10013:10042   */\n      tag_313\n        /* \"#utility.yul\":10035:10041   */\n      dup3\n        /* \"#utility.yul\":10013:10042   */\n      tag_256\n      jump\t// in\n    tag_313:\n        /* \"#utility.yul\":10005:10042   */\n      swap1\n      pop\n        /* \"#utility.yul\":10097:10101   */\n      0x20\n        /* \"#utility.yul\":10091:10095   */\n      dup2\n        /* \"#utility.yul\":10087:10102   */\n      add\n        /* \"#utility.yul\":10079:10102   */\n      swap1\n      pop\n        /* \"#utility.yul\":9801:10109   */\n      swap2\n      swap1\n      pop\n      jump\t// out\n        /* \"#utility.yul\":10115:10267   */\n    tag_233:\n        /* \"#utility.yul\":10202:10206   */\n      0x00\n        /* \"#utility.yul\":10225:10228   */\n      dup2\n        /* \"#utility.yul\":10217:10228   */\n      swap1\n      pop\n        /* \"#utility.yul\":10255:10259   */\n      0x20\n        /* \"#utility.yul\":10250:10253   */\n      dup3\n        /* \"#utility.yul\":10246:10260   */\n      add\n        /* \"#utility.yul\":10238:10260   */\n      swap1\n      pop\n        /* \"#utility.yul\":10115:10267   */\n      swap2\n      swap1\n      pop\n      jump\t// out\n        /* \"#utility.yul\":10273:10407   */\n    tag_229:\n        /* \"#utility.yul\":10360:10366   */\n      0x00\n        /* \"#utility.yul\":10394:10399   */\n      dup2\n        /* \"#utility.yul\":10388:10400   */\n      mload\n        /* \"#utility.yul\":10378:10400   */\n      swap1\n      pop\n        /* \"#utility.yul\":10273:10407   */\n      swap2\n      swap1\n      pop\n      jump\t// out\n        /* \"#utility.yul\":10413:10512   */\n    tag_250:\n        /* \"#utility.yul\":10465:10471   */\n      0x00\n        /* \"#utility.yul\":10499:10504   */\n      dup2\n        /* \"#utility.yul\":10493:10505   */\n      mload\n        /* \"#utility.yul\":10483:10505   */\n      swap1\n      pop\n        /* \"#utility.yul\":10413:10512   */\n      swap2\n      swap1\n      pop\n      jump\t// out\n        /* \"#utility.yul\":10518:10651   */\n    tag_239:\n        /* \"#utility.yul\":10608:10612   */\n      0x00\n        /* \"#utility.yul\":10640:10644   */\n      0x20\n        /* \"#utility.yul\":10635:10638   */\n      dup3\n        /* \"#utility.yul\":10631:10645   */\n      add\n        /* \"#utility.yul\":10623:10645   */\n      swap1\n      pop\n        /* \"#utility.yul\":10518:10651   */\n      swap2\n      swap1\n      pop\n      jump\t// out\n        /* \"#utility.yul\":10657:10861   */\n    tag_231:\n        /* \"#utility.yul\":10776:10787   */\n      0x00\n        /* \"#utility.yul\":10810:10816   */\n      dup3\n        /* \"#utility.yul\":10805:10808   */\n      dup3\n        /* \"#utility.yul\":10798:10817   */\n      mstore\n        /* \"#utility.yul\":10850:10854   */\n      0x20\n        /* \"#utility.yul\":10845:10848   */\n      dup3\n        /* \"#utility.yul\":10841:10855   */\n      add\n        /* \"#utility.yul\":10826:10855   */\n      swap1\n      pop\n        /* \"#utility.yul\":10657:10861   */\n      swap3\n      swap2\n      pop\n      pop\n      jump\t// out\n        /* \"#utility.yul\":10867:11026   */\n    tag_252:\n        /* \"#utility.yul\":10941:10952   */\n      0x00\n        /* \"#utility.yul\":10975:10981   */\n      dup3\n        /* \"#utility.yul\":10970:10973   */\n      dup3\n        /* \"#utility.yul\":10963:10982   */\n      mstore\n        /* \"#utility.yul\":11015:11019   */\n      0x20\n        /* \"#utility.yul\":11010:11013   */\n      dup3\n        /* \"#utility.yul\":11006:11020   */\n      add\n        /* \"#utility.yul\":10991:11020   */\n      swap1\n      pop\n        /* \"#utility.yul\":10867:11026   */\n      swap3\n      swap2\n      pop\n      pop\n      jump\t// out\n        /* \"#utility.yul\":11032:11201   */\n    tag_261:\n        /* \"#utility.yul\":11116:11127   */\n      0x00\n        /* \"#utility.yul\":11150:11156   */\n      dup3\n        /* \"#utility.yul\":11145:11148   */\n      dup3\n        /* \"#utility.yul\":11138:11157   */\n      mstore\n        /* \"#utility.yul\":11190:11194   */\n      0x20\n        /* \"#utility.yul\":11185:11188   */\n      dup3\n        /* \"#utility.yul\":11181:11195   */\n      add\n        /* \"#utility.yul\":11166:11195   */\n      swap1\n      pop\n        /* \"#utility.yul\":11032:11201   */\n      swap3\n      swap2\n      pop\n      pop\n      jump\t// out\n        /* \"#utility.yul\":11207:11355   */\n    tag_268:\n        /* \"#utility.yul\":11309:11320   */\n      0x00\n        /* \"#utility.yul\":11346:11349   */\n      dup2\n        /* \"#utility.yul\":11331:11349   */\n      swap1\n      pop\n        /* \"#utility.yul\":11207:11355   */\n      swap3\n      swap2\n      pop\n      pop\n      jump\t// out\n        /* \"#utility.yul\":11361:11552   */\n    tag_46:\n        /* \"#utility.yul\":11401:11405   */\n      0x00\n        /* \"#utility.yul\":11421:11441   */\n      tag_323\n        /* \"#utility.yul\":11439:11440   */\n      dup3\n        /* \"#utility.yul\":11421:11441   */\n      tag_285\n      jump\t// in\n    tag_323:\n        /* \"#utility.yul\":11416:11441   */\n      swap2\n      pop\n        /* \"#utility.yul\":11455:11475   */\n      tag_324\n        /* \"#utility.yul\":11473:11474   */\n      dup4\n        /* \"#utility.yul\":11455:11475   */\n      tag_285\n      jump\t// in\n    tag_324:\n        /* \"#utility.yul\":11450:11475   */\n      swap3\n      pop\n        /* \"#utility.yul\":11494:11495   */\n      dup3\n        /* \"#utility.yul\":11491:11492   */\n      dup3\n        /* \"#utility.yul\":11488:11496   */\n      lt\n        /* \"#utility.yul\":11485:11519   */\n      iszero\n      tag_325\n      jumpi\n        /* \"#utility.yul\":11499:11517   */\n      tag_326\n      tag_327\n      jump\t// in\n    tag_326:\n        /* \"#utility.yul\":11485:11519   */\n    tag_325:\n        /* \"#utility.yul\":11544:11545   */\n      dup3\n        /* \"#utility.yul\":11541:11542   */\n      dup3\n        /* \"#utility.yul\":11537:11546   */\n      sub\n        /* \"#utility.yul\":11529:11546   */\n      swap1\n      pop\n        /* \"#utility.yul\":11361:11552   */\n      swap3\n      swap2\n      pop\n      pop\n      jump\t// out\n        /* \"#utility.yul\":11558:11654   */\n    tag_222:\n        /* \"#utility.yul\":11595:11602   */\n      0x00\n        /* \"#utility.yul\":11624:11648   */\n      tag_329\n        /* \"#utility.yul\":11642:11647   */\n      dup3\n        /* \"#utility.yul\":11624:11648   */\n      tag_330\n      jump\t// in\n    tag_329:\n        /* \"#utility.yul\":11613:11648   */\n      swap1\n      pop\n        /* \"#utility.yul\":11558:11654   */\n      swap2\n      swap1\n      pop\n      jump\t// out\n        /* \"#utility.yul\":11660:11750   */\n    tag_243:\n        /* \"#utility.yul\":11694:11701   */\n      0x00\n        /* \"#utility.yul\":11737:11742   */\n      dup2\n        /* \"#utility.yul\":11730:11743   */\n      iszero\n        /* \"#utility.yul\":11723:11744   */\n      iszero\n        /* \"#utility.yul\":11712:11744   */\n      swap1\n      pop\n        /* \"#utility.yul\":11660:11750   */\n      swap2\n      swap1\n      pop\n      jump\t// out\n        /* \"#utility.yul\":11756:11882   */\n    tag_330:\n        /* \"#utility.yul\":11793:11800   */\n      0x00\n        /* \"#utility.yul\":11833:11875   */\n      0xffffffffffffffffffffffffffffffffffffffff\n        /* \"#utility.yul\":11826:11831   */\n      dup3\n        /* \"#utility.yul\":11822:11876   */\n      and\n        /* \"#utility.yul\":11811:11876   */\n      swap1\n      pop\n        /* \"#utility.yul\":11756:11882   */\n      swap2\n      swap1\n      pop\n      jump\t// out\n        /* \"#utility.yul\":11888:11965   */\n    tag_285:\n        /* \"#utility.yul\":11925:11932   */\n      0x00\n        /* \"#utility.yul\":11954:11959   */\n      dup2\n        /* \"#utility.yul\":11943:11959   */\n      swap1\n      pop\n        /* \"#utility.yul\":11888:11965   */\n      swap2\n      swap1\n      pop\n      jump\t// out\n        /* \"#utility.yul\":11971:12125   */\n    tag_185:\n        /* \"#utility.yul\":12055:12061   */\n      dup3\n        /* \"#utility.yul\":12050:12053   */\n      dup2\n        /* \"#utility.yul\":12045:12048   */\n      dup4\n        /* \"#utility.yul\":12032:12062   */\n      calldatacopy\n        /* \"#utility.yul\":12117:12118   */\n      0x00\n        /* \"#utility.yul\":12108:12114   */\n      dup4\n        /* \"#utility.yul\":12103:12106   */\n      dup4\n        /* \"#utility.yul\":12099:12115   */\n      add\n        /* \"#utility.yul\":12092:12119   */\n      mstore\n        /* \"#utility.yul\":11971:12125   */\n      pop\n      pop\n      pop\n      jump\t// out\n        /* \"#utility.yul\":12131:12438   */\n    tag_254:\n        /* \"#utility.yul\":12199:12200   */\n      0x00\n        /* \"#utility.yul\":12209:12322   */\n    tag_336:\n        /* \"#utility.yul\":12223:12229   */\n      dup4\n        /* \"#utility.yul\":12220:12221   */\n      dup2\n        /* \"#utility.yul\":12217:12230   */\n      lt\n        /* \"#utility.yul\":12209:12322   */\n      iszero\n      tag_338\n      jumpi\n        /* \"#utility.yul\":12308:12309   */\n      dup1\n        /* \"#utility.yul\":12303:12306   */\n      dup3\n        /* \"#utility.yul\":12299:12310   */\n      add\n        /* \"#utility.yul\":12293:12311   */\n      mload\n        /* \"#utility.yul\":12289:12290   */\n      dup2\n        /* \"#utility.yul\":12284:12287   */\n      dup5\n        /* \"#utility.yul\":12280:12291   */\n      add\n        /* \"#utility.yul\":12273:12312   */\n      mstore\n        /* \"#utility.yul\":12245:12247   */\n      0x20\n        /* \"#utility.yul\":12242:12243   */\n      dup2\n        /* \"#utility.yul\":12238:12248   */\n      add\n        /* \"#utility.yul\":12233:12248   */\n      swap1\n      pop\n        /* \"#utility.yul\":12209:12322   */\n      jump(tag_336)\n    tag_338:\n        /* \"#utility.yul\":12340:12346   */\n      dup4\n        /* \"#utility.yul\":12337:12338   */\n      dup2\n        /* \"#utility.yul\":12334:12347   */\n      gt\n        /* \"#utility.yul\":12331:12432   */\n      iszero\n      tag_339\n      jumpi\n        /* \"#utility.yul\":12420:12421   */\n      0x00\n        /* \"#utility.yul\":12411:12417   */\n      dup5\n        /* \"#utility.yul\":12406:12409   */\n      dup5\n        /* \"#utility.yul\":12402:12418   */\n      add\n        /* \"#utility.yul\":12395:12422   */\n      mstore\n        /* \"#utility.yul\":12331:12432   */\n    tag_339:\n        /* \"#utility.yul\":12180:12438   */\n      pop\n        /* \"#utility.yul\":12131:12438   */\n      pop\n      pop\n      pop\n      jump\t// out\n        /* \"#utility.yul\":12444:12764   */\n    tag_54:\n        /* \"#utility.yul\":12488:12494   */\n      0x00\n        /* \"#utility.yul\":12525:12526   */\n      0x02\n        /* \"#utility.yul\":12519:12523   */\n      dup3\n        /* \"#utility.yul\":12515:12527   */\n      div\n        /* \"#utility.yul\":12505:12527   */\n      swap1\n      pop\n        /* \"#utility.yul\":12572:12573   */\n      0x01\n        /* \"#utility.yul\":12566:12570   */\n      dup3\n        /* \"#utility.yul\":12562:12574   */\n      and\n        /* \"#utility.yul\":12593:12611   */\n      dup1\n        /* \"#utility.yul\":12583:12664   */\n      tag_341\n      jumpi\n        /* \"#utility.yul\":12649:12653   */\n      0x7f\n        /* \"#utility.yul\":12641:12647   */\n      dup3\n        /* \"#utility.yul\":12637:12654   */\n      and\n        /* \"#utility.yul\":12627:12654   */\n      swap2\n      pop\n        /* \"#utility.yul\":12583:12664   */\n    tag_341:\n        /* \"#utility.yul\":12711:12713   */\n      0x20\n        /* \"#utility.yul\":12703:12709   */\n      dup3\n        /* \"#utility.yul\":12700:12714   */\n      lt\n        /* \"#utility.yul\":12680:12698   */\n      dup2\n        /* \"#utility.yul\":12677:12715   */\n      eq\n        /* \"#utility.yul\":12674:12758   */\n      iszero\n      tag_342\n      jumpi\n        /* \"#utility.yul\":12730:12748   */\n      tag_343\n      tag_344\n      jump\t// in\n    tag_343:\n        /* \"#utility.yul\":12674:12758   */\n    tag_342:\n        /* \"#utility.yul\":12495:12764   */\n      pop\n        /* \"#utility.yul\":12444:12764   */\n      swap2\n      swap1\n      pop\n      jump\t// out\n        /* \"#utility.yul\":12770:13051   */\n    tag_308:\n        /* \"#utility.yul\":12853:12880   */\n      tag_346\n        /* \"#utility.yul\":12875:12879   */\n      dup3\n        /* \"#utility.yul\":12853:12880   */\n      tag_256\n      jump\t// in\n    tag_346:\n        /* \"#utility.yul\":12845:12851   */\n      dup2\n        /* \"#utility.yul\":12841:12881   */\n      add\n        /* \"#utility.yul\":12983:12989   */\n      dup2\n        /* \"#utility.yul\":12971:12981   */\n      dup2\n        /* \"#utility.yul\":12968:12990   */\n      lt\n        /* \"#utility.yul\":12947:12965   */\n      0xffffffffffffffff\n        /* \"#utility.yul\":12935:12945   */\n      dup3\n        /* \"#utility.yul\":12932:12966   */\n      gt\n        /* \"#utility.yul\":12929:12991   */\n      or\n        /* \"#utility.yul\":12926:13014   */\n      iszero\n      tag_347\n      jumpi\n        /* \"#utility.yul\":12994:13012   */\n      tag_348\n      tag_83\n      jump\t// in\n    tag_348:\n        /* \"#utility.yul\":12926:13014   */\n    tag_347:\n        /* \"#utility.yul\":13034:13044   */\n      dup1\n        /* \"#utility.yul\":13030:13032   */\n      0x40\n        /* \"#utility.yul\":13023:13045   */\n      mstore\n        /* \"#utility.yul\":12813:13051   */\n      pop\n        /* \"#utility.yul\":12770:13051   */\n      pop\n      pop\n      jump\t// out\n        /* \"#utility.yul\":13057:13290   */\n    tag_79:\n        /* \"#utility.yul\":13096:13099   */\n      0x00\n        /* \"#utility.yul\":13119:13143   */\n      tag_350\n        /* \"#utility.yul\":13137:13142   */\n      dup3\n        /* \"#utility.yul\":13119:13143   */\n      tag_285\n      jump\t// in\n    tag_350:\n        /* \"#utility.yul\":13110:13143   */\n      swap2\n      pop\n        /* \"#utility.yul\":13165:13231   */\n      0xffffffffffffffffffffffffffffffffffffffffffffffffffffffffffffffff\n        /* \"#utility.yul\":13158:13163   */\n      dup3\n        /* \"#utility.yul\":13155:13232   */\n      eq\n        /* \"#utility.yul\":13152:13255   */\n      iszero\n      tag_351\n      jumpi\n        /* \"#utility.yul\":13235:13253   */\n      tag_352\n      tag_327\n      jump\t// in\n    tag_352:\n        /* \"#utility.yul\":13152:13255   */\n    tag_351:\n        /* \"#utility.yul\":13282:13283   */\n      0x01\n        /* \"#utility.yul\":13275:13280   */\n      dup3\n        /* \"#utility.yul\":13271:13284   */\n      add\n        /* \"#utility.yul\":13264:13284   */\n      swap1\n      pop\n        /* \"#utility.yul\":13057:13290   */\n      swap2\n      swap1\n      pop\n      jump\t// out\n        /* \"#utility.yul\":13296:13476   */\n    tag_327:\n        /* \"#utility.yul\":13344:13421   */\n      0x4e487b7100000000000000000000000000000000000000000000000000000000\n        /* \"#utility.yul\":13341:13342   */\n      0x00\n        /* \"#utility.yul\":13334:13422   */\n      mstore\n        /* \"#utility.yul\":13441:13445   */\n      0x11\n        /* \"#utility.yul\":13438:13439   */\n      0x04\n        /* \"#utility.yul\":13431:13446   */\n      mstore\n        /* \"#utility.yul\":13465:13469   */\n      0x24\n        /* \"#utility.yul\":13462:13463   */\n      0x00\n        /* \"#utility.yul\":13455:13470   */\n      revert\n        /* \"#utility.yul\":13482:13662   */\n    tag_344:\n        /* \"#utility.yul\":13530:13607   */\n      0x4e487b7100000000000000000000000000000000000000000000000000000000\n        /* \"#utility.yul\":13527:13528   */\n      0x00\n        /* \"#utility.yul\":13520:13608   */\n      mstore\n        /* \"#utility.yul\":13627:13631   */\n      0x22\n        /* \"#utility.yul\":13624:13625   */\n      0x04\n        /* \"#utility.yul\":13617:13632   */\n      mstore\n        /* \"#utility.yul\":13651:13655   */\n      0x24\n        /* \"#utility.yul\":13648:13649   */\n      0x00\n        /* \"#utility.yul\":13641:13656   */\n      revert\n        /* \"#utility.yul\":13668:13848   */\n    tag_59:\n        /* \"#utility.yul\":13716:13793   */\n      0x4e487b7100000000000000000000000000000000000000000000000000000000\n        /* \"#utility.yul\":13713:13714   */\n      0x00\n        /* \"#utility.yul\":13706:13794   */\n      mstore\n        /* \"#utility.yul\":13813:13817   */\n      0x31\n        /* \"#utility.yul\":13810:13811   */\n      0x04\n        /* \"#utility.yul\":13803:13818   */\n      mstore\n        /* \"#utility.yul\":13837:13841   */\n      0x24\n        /* \"#utility.yul\":13834:13835   */\n      0x00\n        /* \"#utility.yul\":13827:13842   */\n      revert\n        /* \"#utility.yul\":13854:14034   */\n    tag_38:\n        /* \"#utility.yul\":13902:13979   */\n      0x4e487b7100000000000000000000000000000000000000000000000000000000\n        /* \"#utility.yul\":13899:13900   */\n      0x00\n        /* \"#utility.yul\":13892:13980   */\n      mstore\n        /* \"#utility.yul\":13999:14003   */\n      0x32\n        /* \"#utility.yul\":13996:13997   */\n      0x04\n        /* \"#utility.yul\":13989:14004   */\n      mstore\n        /* \"#utility.yul\":14023:14027   */\n      0x24\n        /* \"#utility.yul\":14020:14021   */\n      0x00\n        /* \"#utility.yul\":14013:14028   */\n      revert\n        /* \"#utility.yul\":14040:14220   */\n    tag_83:\n        /* \"#utility.yul\":14088:14165   */\n      0x4e487b7100000000000000000000000000000000000000000000000000000000\n        /* \"#utility.yul\":14085:14086   */\n      0x00\n        /* \"#utility.yul\":14078:14166   */\n      mstore\n        /* \"#utility.yul\":14185:14189   */\n      0x41\n        /* \"#utility.yul\":14182:14183   */\n      0x04\n        /* \"#utility.yul\":14175:14190   */\n      mstore\n        /* \"#utility.yul\":14209:14213   */\n      0x24\n        /* \"#utility.yul\":14206:14207   */\n      0x00\n        /* \"#utility.yul\":14199:14214   */\n      revert\n        /* \"#utility.yul\":14226:14343   */\n    tag_190:\n        /* \"#utility.yul\":14335:14336   */\n      0x00\n        /* \"#utility.yul\":14332:14333   */\n      dup1\n        /* \"#utility.yul\":14325:14337   */\n      revert\n        /* \"#utility.yul\":14349:14466   */\n    tag_183:\n        /* \"#utility.yul\":14458:14459   */\n      0x00\n        /* \"#utility.yul\":14455:14456   */\n      dup1\n        /* \"#utility.yul\":14448:14460   */\n      revert\n        /* \"#utility.yul\":14472:14589   */\n    tag_202:\n        /* \"#utility.yul\":14581:14582   */\n      0x00\n        /* \"#utility.yul\":14578:14579   */\n      dup1\n        /* \"#utility.yul\":14571:14583   */\n      revert\n        /* \"#utility.yul\":14595:14712   */\n    tag_199:\n        /* \"#utility.yul\":14704:14705   */\n      0x00\n        /* \"#utility.yul\":14701:14702   */\n      dup1\n        /* \"#utility.yul\":14694:14706   */\n      revert\n        /* \"#utility.yul\":14718:14820   */\n    tag_256:\n        /* \"#utility.yul\":14759:14765   */\n      0x00\n        /* \"#utility.yul\":14810:14812   */\n      0x1f\n        /* \"#utility.yul\":14806:14813   */\n      not\n        /* \"#utility.yul\":14801:14803   */\n      0x1f\n        /* \"#utility.yul\":14794:14799   */\n      dup4\n        /* \"#utility.yul\":14790:14804   */\n      add\n        /* \"#utility.yul\":14786:14814   */\n      and\n        /* \"#utility.yul\":14776:14814   */\n      swap1\n      pop\n        /* \"#utility.yul\":14718:14820   */\n      swap2\n      swap1\n      pop\n      jump\t// out\n        /* \"#utility.yul\":14826:15006   */\n    tag_274:\n        /* \"#utility.yul\":14966:14998   */\n      0x546f646f206e6f7420666f756e64206f7220756e617574686f72697a65640000\n        /* \"#utility.yul\":14962:14963   */\n      0x00\n        /* \"#utility.yul\":14954:14960   */\n      dup3\n        /* \"#utility.yul\":14950:14964   */\n      add\n        /* \"#utility.yul\":14943:14999   */\n      mstore\n        /* \"#utility.yul\":14826:15006   */\n      pop\n      jump\t// out\n        /* \"#utility.yul\":15012:15134   */\n    tag_195:\n        /* \"#utility.yul\":15085:15109   */\n      tag_365\n        /* \"#utility.yul\":15103:15108   */\n      dup2\n        /* \"#utility.yul\":15085:15109   */\n      tag_285\n      jump\t// in\n    tag_365:\n        /* \"#utility.yul\":15078:15083   */\n      dup2\n        /* \"#utility.yul\":15075:15110   */\n      eq\n        /* \"#utility.yul\":15065:15128   */\n      tag_366\n      jumpi\n        /* \"#utility.yul\":15124:15125   */\n      0x00\n        /* \"#utility.yul\":15121:15122   */\n      dup1\n        /* \"#utility.yul\":15114:15126   */\n      revert\n        /* \"#utility.yul\":15065:15128   */\n    tag_366:\n        /* \"#utility.yul\":15012:15134   */\n      pop\n      jump\t// out\n\n    auxdata: 0xa2646970667358221220c2f8e9bc7ce6f77ec6db8863edc6b9935e3fab2c84237de72e3ac3a4de49e4b664736f6c63430008070033\n}\n",
				"bytecode": {
					"linkReferences": {},
					"object": "608060405234801561001057600080fd5b506117a3806100206000396000f3fe608060405234801561001057600080fd5b50600436106100625760003560e01c80630951e5bd146100675780633be3d70314610083578063bc8bc2b41461009f578063c33926cb146100d4578063d534ee88146100f2578063e34f12211461010e575b600080fd5b610081600480360381019061007c9190611055565b61012a565b005b61009d60048036038101906100989190611055565b6101ac565b005b6100b960048036038101906100b49190611055565b6103bb565b6040516100cb96959493929190611384565b60405180910390f35b6100dc6104bc565b6040516100e99190611327565b60405180910390f35b61010c60048036038101906101079190611082565b6107e5565b005b6101286004803603810190610123919061100c565b6108c3565b005b600061013582610a62565b9150506000818154811061014c5761014b6116aa565b5b906000526020600020906006020160030160009054906101000a900460ff1615600082815481106101805761017f6116aa565b5b906000526020600020906006020160030160006101000a81548160ff0219169083151502179055505050565b60006101b782610a62565b915050600060016000805490506101ce91906114b3565b815481106101df576101de6116aa565b5b906000526020600020906006020160008281548110610201576102006116aa565b5b9060005260206000209060060201600082015481600001556001820160009054906101000a900473ffffffffffffffffffffffffffffffffffffffff168160010160006101000a81548173ffffffffffffffffffffffffffffffffffffffff021916908373ffffffffffffffffffffffffffffffffffffffff160217905550600282018160020190805461029490611571565b61029f929190610dc9565b506003820160009054906101000a900460ff168160030160006101000a81548160ff021916908315150217905550600482015481600401556005820154816005015590505060008054806102f6576102f561167b565b5b60019003818190600052602060002090600602016000808201600090556001820160006101000a81549073ffffffffffffffffffffffffffffffffffffffff021916905560028201600061034a9190610e56565b6003820160006101000a81549060ff02191690556004820160009055600582016000905550509055423373ffffffffffffffffffffffffffffffffffffffff16837fa283ae84f92e83b5b281747ff43c74df07cb2cae67d7190cdd7226d73156530260405160405180910390a45050565b600081815481106103cb57600080fd5b90600052602060002090600602016000915090508060000154908060010160009054906101000a900473ffffffffffffffffffffffffffffffffffffffff169080600201805461041a90611571565b80601f016020809104026020016040519081016040528092919081815260200182805461044690611571565b80156104935780601f1061046857610100808354040283529160200191610493565b820191906000526020600020905b81548152906001019060200180831161047657829003601f168201915b5050505050908060030160009054906101000a900460ff16908060040154908060050154905086565b60606000805b60008054905081101561056a573373ffffffffffffffffffffffffffffffffffffffff16600082815481106104fa576104f96116aa565b5b906000526020600020906006020160010160009054906101000a900473ffffffffffffffffffffffffffffffffffffffff1673ffffffffffffffffffffffffffffffffffffffff161415610557578180610553906115d4565b9250505b8080610562906115d4565b9150506104c2565b5060008167ffffffffffffffff811115610587576105866116d9565b5b6040519080825280602002602001820160405280156105c057816020015b6105ad610e96565b8152602001906001900390816105a55790505b5090506000805b6000805490508110156107db573373ffffffffffffffffffffffffffffffffffffffff16600082815481106105ff576105fe6116aa565b5b906000526020600020906006020160010160009054906101000a900473ffffffffffffffffffffffffffffffffffffffff1673ffffffffffffffffffffffffffffffffffffffff1614156107c85760008181548110610661576106606116aa565b5b90600052602060002090600602016040518060c0016040529081600082015481526020016001820160009054906101000a900473ffffffffffffffffffffffffffffffffffffffff1673ffffffffffffffffffffffffffffffffffffffff1673ffffffffffffffffffffffffffffffffffffffff1681526020016002820180546106ea90611571565b80601f016020809104026020016040519081016040528092919081815260200182805461071690611571565b80156107635780601f1061073857610100808354040283529160200191610763565b820191906000526020600020905b81548152906001019060200180831161074657829003601f168201915b505050505081526020016003820160009054906101000a900460ff16151515158152602001600482015481526020016005820154815250508383815181106107ae576107ad6116aa565b5b602002602001018190525081806107c4906115d4565b9250505b80806107d3906115d4565b9150506105c7565b5081935050505090565b60006107f083610a62565b9150508160008281548110610808576108076116aa565b5b9060005260206000209060060201600201908051906020019061082c929190610ee4565b504260008281548110610842576108416116aa565b5b90600052602060002090600602016005018190555042826040516108669190611310565b60405180910390203373ffffffffffffffffffffffffffffffffffffffff167f1bfc1050c12735e07f86d48dc958e8c1588bf60f76c6dce9144d31bb34ad204c6001546040516108b69190611369565b60405180910390a4505050565b60006040518060c0016040528060015481526020013373ffffffffffffffffffffffffffffffffffffffff168152602001838152602001600015158152602001428152602001428152509050428260405161091e9190611310565b60405180910390203373ffffffffffffffffffffffffffffffffffffffff167facc169aa69d74e444dd546cfb88dbf2990738e83ca82c06645b16705977c906e60015460405161096e9190611369565b60405180910390a460008190806001815401808255809150506001900390600052602060002090600602016000909190919091506000820151816000015560208201518160010160006101000a81548173ffffffffffffffffffffffffffffffffffffffff021916908373ffffffffffffffffffffffffffffffffffffffff1602179055506040820151816002019080519060200190610a0f929190610ee4565b5060608201518160030160006101000a81548160ff0219169083151502179055506080820151816004015560a08201518160050155505060016000815480929190610a59906115d4565b91905055505050565b610a6a610e96565b600080600090505b600080549050811015610d88576000808281548110610a9457610a936116aa565b5b90600052602060002090600602016040518060c0016040529081600082015481526020016001820160009054906101000a900473ffffffffffffffffffffffffffffffffffffffff1673ffffffffffffffffffffffffffffffffffffffff1673ffffffffffffffffffffffffffffffffffffffff168152602001600282018054610b1d90611571565b80601f0160208091040260200160405190810160405280929190818152602001828054610b4990611571565b8015610b965780601f10610b6b57610100808354040283529160200191610b96565b820191906000526020600020905b815481529060010190602001808311610b7957829003601f168201915b505050505081526020016003820160009054906101000a900460ff16151515158152602001600482015481526020016005820154815250509050848160000151148015610c1257503373ffffffffffffffffffffffffffffffffffffffff16816020015173ffffffffffffffffffffffffffffffffffffffff16145b15610d745760008281548110610c2b57610c2a6116aa565b5b906000526020600020906006020182816040518060c0016040529081600082015481526020016001820160009054906101000a900473ffffffffffffffffffffffffffffffffffffffff1673ffffffffffffffffffffffffffffffffffffffff1673ffffffffffffffffffffffffffffffffffffffff168152602001600282018054610cb690611571565b80601f0160208091040260200160405190810160405280929190818152602001828054610ce290611571565b8015610d2f5780601f10610d0457610100808354040283529160200191610d2f565b820191906000526020600020905b815481529060010190602001808311610d1257829003601f168201915b505050505081526020016003820160009054906101000a900460ff16151515158152602001600482015481526020016005820154815250509150935093505050610dc4565b508080610d80906115d4565b915050610a72565b506040517f08c379a0000000000000000000000000000000000000000000000000000000008152600401610dbb90611349565b60405180910390fd5b915091565b828054610dd590611571565b90600052602060002090601f016020900481019282610df75760008555610e45565b82601f10610e085780548555610e45565b82800160010185558215610e4557600052602060002091601f016020900482015b82811115610e44578254825591600101919060010190610e29565b5b509050610e529190610f6a565b5090565b508054610e6290611571565b6000825580601f10610e745750610e93565b601f016020900490600052602060002090810190610e929190610f6a565b5b50565b6040518060c0016040528060008152602001600073ffffffffffffffffffffffffffffffffffffffff1681526020016060815260200160001515815260200160008152602001600081525090565b828054610ef090611571565b90600052602060002090601f016020900481019282610f125760008555610f59565b82601f10610f2b57805160ff1916838001178555610f59565b82800160010185558215610f59579182015b82811115610f58578251825591602001919060010190610f3d565b5b509050610f669190610f6a565b5090565b5b80821115610f83576000816000905550600101610f6b565b5090565b6000610f9a610f9584611411565b6113ec565b905082815260208101848484011115610fb657610fb561170d565b5b610fc184828561152f565b509392505050565b600082601f830112610fde57610fdd611708565b5b8135610fee848260208601610f87565b91505092915050565b60008135905061100681611756565b92915050565b60006020828403121561102257611021611717565b5b600082013567ffffffffffffffff8111156110405761103f611712565b5b61104c84828501610fc9565b91505092915050565b60006020828403121561106b5761106a611717565b5b600061107984828501610ff7565b91505092915050565b6000806040838503121561109957611098611717565b5b60006110a785828601610ff7565b925050602083013567ffffffffffffffff8111156110c8576110c7611712565b5b6110d485828601610fc9565b9150509250929050565b60006110ea8383611269565b905092915050565b6110fb816114e7565b82525050565b61110a816114e7565b82525050565b600061111b82611452565b6111258185611475565b93508360208202850161113785611442565b8060005b85811015611173578484038952815161115485826110de565b945061115f83611468565b925060208a0199505060018101905061113b565b50829750879550505050505092915050565b61118e816114f9565b82525050565b61119d816114f9565b82525050565b60006111ae8261145d565b6111b88185611486565b93506111c881856020860161153e565b6111d18161171c565b840191505092915050565b60006111e78261145d565b6111f18185611497565b935061120181856020860161153e565b61120a8161171c565b840191505092915050565b60006112208261145d565b61122a81856114a8565b935061123a81856020860161153e565b80840191505092915050565b6000611253601e83611497565b915061125e8261172d565b602082019050919050565b600060c08301600083015161128160008601826112f2565b50602083015161129460208601826110f2565b50604083015184820360408601526112ac82826111a3565b91505060608301516112c16060860182611185565b5060808301516112d460808601826112f2565b5060a08301516112e760a08601826112f2565b508091505092915050565b6112fb81611525565b82525050565b61130a81611525565b82525050565b600061131c8284611215565b915081905092915050565b600060208201905081810360008301526113418184611110565b905092915050565b6000602082019050818103600083015261136281611246565b9050919050565b600060208201905061137e6000830184611301565b92915050565b600060c0820190506113996000830189611301565b6113a66020830188611101565b81810360408301526113b881876111dc565b90506113c76060830186611194565b6113d46080830185611301565b6113e160a0830184611301565b979650505050505050565b60006113f6611407565b905061140282826115a3565b919050565b6000604051905090565b600067ffffffffffffffff82111561142c5761142b6116d9565b5b6114358261171c565b9050602081019050919050565b6000819050602082019050919050565b600081519050919050565b600081519050919050565b6000602082019050919050565b600082825260208201905092915050565b600082825260208201905092915050565b600082825260208201905092915050565b600081905092915050565b60006114be82611525565b91506114c983611525565b9250828210156114dc576114db61161d565b5b828203905092915050565b60006114f282611505565b9050919050565b60008115159050919050565b600073ffffffffffffffffffffffffffffffffffffffff82169050919050565b6000819050919050565b82818337600083830152505050565b60005b8381101561155c578082015181840152602081019050611541565b8381111561156b576000848401525b50505050565b6000600282049050600182168061158957607f821691505b6020821081141561159d5761159c61164c565b5b50919050565b6115ac8261171c565b810181811067ffffffffffffffff821117156115cb576115ca6116d9565b5b80604052505050565b60006115df82611525565b91507fffffffffffffffffffffffffffffffffffffffffffffffffffffffffffffffff8214156116125761161161161d565b5b600182019050919050565b7f4e487b7100000000000000000000000000000000000000000000000000000000600052601160045260246000fd5b7f4e487b7100000000000000000000000000000000000000000000000000000000600052602260045260246000fd5b7f4e487b7100000000000000000000000000000000000000000000000000000000600052603160045260246000fd5b7f4e487b7100000000000000000000000000000000000000000000000000000000600052603260045260246000fd5b7f4e487b7100000000000000000000000000000000000000000000000000000000600052604160045260246000fd5b600080fd5b600080fd5b600080fd5b600080fd5b6000601f19601f8301169050919050565b7f546f646f206e6f7420666f756e64206f7220756e617574686f72697a65640000600082015250565b61175f81611525565b811461176a57600080fd5b5056fea2646970667358221220c2f8e9bc7ce6f77ec6db8863edc6b9935e3fab2c84237de72e3ac3a4de49e4b664736f6c63430008070033",
					"opcodes": "PUSH1 0x80 PUSH1 0x40 MSTORE CALLVALUE DUP1 ISZERO PUSH2 0x10 JUMPI PUSH1 0x0 DUP1 REVERT JUMPDEST POP PUSH2 0x17A3 DUP1 PUSH2 0x20 PUSH1 0x0 CODECOPY PUSH1 0x0 RETURN INVALID PUSH1 0x80 PUSH1 0x40 MSTORE CALLVALUE DUP1 ISZERO PUSH2 0x10 JUMPI PUSH1 0x0 DUP1 REVERT JUMPDEST POP PUSH1 0x4 CALLDATASIZE LT PUSH2 0x62 JUMPI PUSH1 0x0 CALLDATALOAD PUSH1 0xE0 SHR DUP1 PUSH4 0x951E5BD EQ PUSH2 0x67 JUMPI DUP1 PUSH4 0x3BE3D703 EQ PUSH2 0x83 JUMPI DUP1 PUSH4 0xBC8BC2B4 EQ PUSH2 0x9F JUMPI DUP1 PUSH4 0xC33926CB EQ PUSH2 0xD4 JUMPI DUP1 PUSH4 0xD534EE88 EQ PUSH2 0xF2 JUMPI DUP1 PUSH4 0xE34F1221 EQ PUSH2 0x10E JUMPI JUMPDEST PUSH1 0x0 DUP1 REVERT JUMPDEST PUSH2 0x81 PUSH1 0x4 DUP1 CALLDATASIZE SUB DUP2 ADD SWAP1 PUSH2 0x7C SWAP2 SWAP1 PUSH2 0x1055 JUMP JUMPDEST PUSH2 0x12A JUMP JUMPDEST STOP JUMPDEST PUSH2 0x9D PUSH1 0x4 DUP1 CALLDATASIZE SUB DUP2 ADD SWAP1 PUSH2 0x98 SWAP2 SWAP1 PUSH2 0x1055 JUMP JUMPDEST PUSH2 0x1AC JUMP JUMPDEST STOP JUMPDEST PUSH2 0xB9 PUSH1 0x4 DUP1 CALLDATASIZE SUB DUP2 ADD SWAP1 PUSH2 0xB4 SWAP2 SWAP1 PUSH2 0x1055 JUMP JUMPDEST PUSH2 0x3BB JUMP JUMPDEST PUSH1 0x40 MLOAD PUSH2 0xCB SWAP7 SWAP6 SWAP5 SWAP4 SWAP3 SWAP2 SWAP1 PUSH2 0x1384 JUMP JUMPDEST PUSH1 0x40 MLOAD DUP1 SWAP2 SUB SWAP1 RETURN JUMPDEST PUSH2 0xDC PUSH2 0x4BC JUMP JUMPDEST PUSH1 0x40 MLOAD PUSH2 0xE9 SWAP2 SWAP1 PUSH2 0x1327 JUMP JUMPDEST PUSH1 0x40 MLOAD DUP1 SWAP2 SUB SWAP1 RETURN JUMPDEST PUSH2 0x10C PUSH1 0x4 DUP1 CALLDATASIZE SUB DUP2 ADD SWAP1 PUSH2 0x107 SWAP2 SWAP1 PUSH2 0x1082 JUMP JUMPDEST PUSH2 0x7E5 JUMP JUMPDEST STOP JUMPDEST PUSH2 0x128 PUSH1 0x4 DUP1 CALLDATASIZE SUB DUP2 ADD SWAP1 PUSH2 0x123 SWAP2 SWAP1 PUSH2 0x100C JUMP JUMPDEST PUSH2 0x8C3 JUMP JUMPDEST STOP JUMPDEST PUSH1 0x0 PUSH2 0x135 DUP3 PUSH2 0xA62 JUMP JUMPDEST SWAP2 POP POP PUSH1 0x0 DUP2 DUP2 SLOAD DUP2 LT PUSH2 0x14C JUMPI PUSH2 0x14B PUSH2 0x16AA JUMP JUMPDEST JUMPDEST SWAP1 PUSH1 0x0 MSTORE PUSH1 0x20 PUSH1 0x0 KECCAK256 SWAP1 PUSH1 0x6 MUL ADD PUSH1 0x3 ADD PUSH1 0x0 SWAP1 SLOAD SWAP1 PUSH2 0x100 EXP SWAP1 DIV PUSH1 0xFF AND ISZERO PUSH1 0x0 DUP3 DUP2 SLOAD DUP2 LT PUSH2 0x180 JUMPI PUSH2 0x17F PUSH2 0x16AA JUMP JUMPDEST JUMPDEST SWAP1 PUSH1 0x0 MSTORE PUSH1 0x20 PUSH1 0x0 KECCAK256 SWAP1 PUSH1 0x6 MUL ADD PUSH1 0x3 ADD PUSH1 0x0 PUSH2 0x100 EXP DUP2 SLOAD DUP2 PUSH1 0xFF MUL NOT AND SWAP1 DUP4 ISZERO ISZERO MUL OR SWAP1 SSTORE POP POP POP JUMP JUMPDEST PUSH1 0x0 PUSH2 0x1B7 DUP3 PUSH2 0xA62 JUMP JUMPDEST SWAP2 POP POP PUSH1 0x0 PUSH1 0x1 PUSH1 0x0 DUP1 SLOAD SWAP1 POP PUSH2 0x1CE SWAP2 SWAP1 PUSH2 0x14B3 JUMP JUMPDEST DUP2 SLOAD DUP2 LT PUSH2 0x1DF JUMPI PUSH2 0x1DE PUSH2 0x16AA JUMP JUMPDEST JUMPDEST SWAP1 PUSH1 0x0 MSTORE PUSH1 0x20 PUSH1 0x0 KECCAK256 SWAP1 PUSH1 0x6 MUL ADD PUSH1 0x0 DUP3 DUP2 SLOAD DUP2 LT PUSH2 0x201 JUMPI PUSH2 0x200 PUSH2 0x16AA JUMP JUMPDEST JUMPDEST SWAP1 PUSH1 0x0 MSTORE PUSH1 0x20 PUSH1 0x0 KECCAK256 SWAP1 PUSH1 0x6 MUL ADD PUSH1 0x0 DUP3 ADD SLOAD DUP2 PUSH1 0x0 ADD SSTORE PUSH1 0x1 DUP3 ADD PUSH1 0x0 SWAP1 SLOAD SWAP1 PUSH2 0x100 EXP SWAP1 DIV PUSH20 0xFFFFFFFFFFFFFFFFFFFFFFFFFFFFFFFFFFFFFFFF AND DUP2 PUSH1 0x1 ADD PUSH1 0x0 PUSH2 0x100 EXP DUP2 SLOAD DUP2 PUSH20 0xFFFFFFFFFFFFFFFFFFFFFFFFFFFFFFFFFFFFFFFF MUL NOT AND SWAP1 DUP4 PUSH20 0xFFFFFFFFFFFFFFFFFFFFFFFFFFFFFFFFFFFFFFFF AND MUL OR SWAP1 SSTORE POP PUSH1 0x2 DUP3 ADD DUP2 PUSH1 0x2 ADD SWAP1 DUP1 SLOAD PUSH2 0x294 SWAP1 PUSH2 0x1571 JUMP JUMPDEST PUSH2 0x29F SWAP3 SWAP2 SWAP1 PUSH2 0xDC9 JUMP JUMPDEST POP PUSH1 0x3 DUP3 ADD PUSH1 0x0 SWAP1 SLOAD SWAP1 PUSH2 0x100 EXP SWAP1 DIV PUSH1 0xFF AND DUP2 PUSH1 0x3 ADD PUSH1 0x0 PUSH2 0x100 EXP DUP2 SLOAD DUP2 PUSH1 0xFF MUL NOT AND SWAP1 DUP4 ISZERO ISZERO MUL OR SWAP1 SSTORE POP PUSH1 0x4 DUP3 ADD SLOAD DUP2 PUSH1 0x4 ADD SSTORE PUSH1 0x5 DUP3 ADD SLOAD DUP2 PUSH1 0x5 ADD SSTORE SWAP1 POP POP PUSH1 0x0 DUP1 SLOAD DUP1 PUSH2 0x2F6 JUMPI PUSH2 0x2F5 PUSH2 0x167B JUMP JUMPDEST JUMPDEST PUSH1 0x1 SWAP1 SUB DUP2 DUP2 SWAP1 PUSH1 0x0 MSTORE PUSH1 0x20 PUSH1 0x0 KECCAK256 SWAP1 PUSH1 0x6 MUL ADD PUSH1 0x0 DUP1 DUP3 ADD PUSH1 0x0 SWAP1 SSTORE PUSH1 0x1 DUP3 ADD PUSH1 0x0 PUSH2 0x100 EXP DUP2 SLOAD SWAP1 PUSH20 0xFFFFFFFFFFFFFFFFFFFFFFFFFFFFFFFFFFFFFFFF MUL NOT AND SWAP1 SSTORE PUSH1 0x2 DUP3 ADD PUSH1 0x0 PUSH2 0x34A SWAP2 SWAP1 PUSH2 0xE56 JUMP JUMPDEST PUSH1 0x3 DUP3 ADD PUSH1 0x0 PUSH2 0x100 EXP DUP2 SLOAD SWAP1 PUSH1 0xFF MUL NOT AND SWAP1 SSTORE PUSH1 0x4 DUP3 ADD PUSH1 0x0 SWAP1 SSTORE PUSH1 0x5 DUP3 ADD PUSH1 0x0 SWAP1 SSTORE POP POP SWAP1 SSTORE TIMESTAMP CALLER PUSH20 0xFFFFFFFFFFFFFFFFFFFFFFFFFFFFFFFFFFFFFFFF AND DUP4 PUSH32 0xA283AE84F92E83B5B281747FF43C74DF07CB2CAE67D7190CDD7226D731565302 PUSH1 0x40 MLOAD PUSH1 0x40 MLOAD DUP1 SWAP2 SUB SWAP1 LOG4 POP POP JUMP JUMPDEST PUSH1 0x0 DUP2 DUP2 SLOAD DUP2 LT PUSH2 0x3CB JUMPI PUSH1 0x0 DUP1 REVERT JUMPDEST SWAP1 PUSH1 0x0 MSTORE PUSH1 0x20 PUSH1 0x0 KECCAK256 SWAP1 PUSH1 0x6 MUL ADD PUSH1 0x0 SWAP2 POP SWAP1 POP DUP1 PUSH1 0x0 ADD SLOAD SWAP1 DUP1 PUSH1 0x1 ADD PUSH1 0x0 SWAP1 SLOAD SWAP1 PUSH2 0x100 EXP SWAP1 DIV PUSH20 0xFFFFFFFFFFFFFFFFFFFFFFFFFFFFFFFFFFFFFFFF AND SWAP1 DUP1 PUSH1 0x2 ADD DUP1 SLOAD PUSH2 0x41A SWAP1 PUSH2 0x1571 JUMP JUMPDEST DUP1 PUSH1 0x1F ADD PUSH1 0x20 DUP1 SWAP2 DIV MUL PUSH1 0x20 ADD PUSH1 0x40 MLOAD SWAP1 DUP2 ADD PUSH1 0x40 MSTORE DUP1 SWAP3 SWAP2 SWAP1 DUP2 DUP2 MSTORE PUSH1 0x20 ADD DUP3 DUP1 SLOAD PUSH2 0x446 SWAP1 PUSH2 0x1571 JUMP JUMPDEST DUP1 ISZERO PUSH2 0x493 JUMPI DUP1 PUSH1 0x1F LT PUSH2 0x468 JUMPI PUSH2 0x100 DUP1 DUP4 SLOAD DIV MUL DUP4 MSTORE SWAP2 PUSH1 0x20 ADD SWAP2 PUSH2 0x493 JUMP JUMPDEST DUP3 ADD SWAP2 SWAP1 PUSH1 0x0 MSTORE PUSH1 0x20 PUSH1 0x0 KECCAK256 SWAP1 JUMPDEST DUP2 SLOAD DUP2 MSTORE SWAP1 PUSH1 0x1 ADD SWAP1 PUSH1 0x20 ADD DUP1 DUP4 GT PUSH2 0x476 JUMPI DUP3 SWAP1 SUB PUSH1 0x1F AND DUP3 ADD SWAP2 JUMPDEST POP POP POP POP POP SWAP1 DUP1 PUSH1 0x3 ADD PUSH1 0x0 SWAP1 SLOAD SWAP1 PUSH2 0x100 EXP SWAP1 DIV PUSH1 0xFF AND SWAP1 DUP1 PUSH1 0x4 ADD SLOAD SWAP1 DUP1 PUSH1 0x5 ADD SLOAD SWAP1 POP DUP7 JUMP JUMPDEST PUSH1 0x60 PUSH1 0x0 DUP1 JUMPDEST PUSH1 0x0 DUP1 SLOAD SWAP1 POP DUP2 LT ISZERO PUSH2 0x56A JUMPI CALLER PUSH20 0xFFFFFFFFFFFFFFFFFFFFFFFFFFFFFFFFFFFFFFFF AND PUSH1 0x0 DUP3 DUP2 SLOAD DUP2 LT PUSH2 0x4FA JUMPI PUSH2 0x4F9 PUSH2 0x16AA JUMP JUMPDEST JUMPDEST SWAP1 PUSH1 0x0 MSTORE PUSH1 0x20 PUSH1 0x0 KECCAK256 SWAP1 PUSH1 0x6 MUL ADD PUSH1 0x1 ADD PUSH1 0x0 SWAP1 SLOAD SWAP1 PUSH2 0x100 EXP SWAP1 DIV PUSH20 0xFFFFFFFFFFFFFFFFFFFFFFFFFFFFFFFFFFFFFFFF AND PUSH20 0xFFFFFFFFFFFFFFFFFFFFFFFFFFFFFFFFFFFFFFFF AND EQ ISZERO PUSH2 0x557 JUMPI DUP2 DUP1 PUSH2 0x553 SWAP1 PUSH2 0x15D4 JUMP JUMPDEST SWAP3 POP POP JUMPDEST DUP1 DUP1 PUSH2 0x562 SWAP1 PUSH2 0x15D4 JUMP JUMPDEST SWAP2 POP POP PUSH2 0x4C2 JUMP JUMPDEST POP PUSH1 0x0 DUP2 PUSH8 0xFFFFFFFFFFFFFFFF DUP2 GT ISZERO PUSH2 0x587 JUMPI PUSH2 0x586 PUSH2 0x16D9 JUMP JUMPDEST JUMPDEST PUSH1 0x40 MLOAD SWAP1 DUP1 DUP3 MSTORE DUP1 PUSH1 0x20 MUL PUSH1 0x20 ADD DUP3 ADD PUSH1 0x40 MSTORE DUP1 ISZERO PUSH2 0x5C0 JUMPI DUP2 PUSH1 0x20 ADD JUMPDEST PUSH2 0x5AD PUSH2 0xE96 JUMP JUMPDEST DUP2 MSTORE PUSH1 0x20 ADD SWAP1 PUSH1 0x1 SWAP1 SUB SWAP1 DUP2 PUSH2 0x5A5 JUMPI SWAP1 POP JUMPDEST POP SWAP1 POP PUSH1 0x0 DUP1 JUMPDEST PUSH1 0x0 DUP1 SLOAD SWAP1 POP DUP2 LT ISZERO PUSH2 0x7DB JUMPI CALLER PUSH20 0xFFFFFFFFFFFFFFFFFFFFFFFFFFFFFFFFFFFFFFFF AND PUSH1 0x0 DUP3 DUP2 SLOAD DUP2 LT PUSH2 0x5FF JUMPI PUSH2 0x5FE PUSH2 0x16AA JUMP JUMPDEST JUMPDEST SWAP1 PUSH1 0x0 MSTORE PUSH1 0x20 PUSH1 0x0 KECCAK256 SWAP1 PUSH1 0x6 MUL ADD PUSH1 0x1 ADD PUSH1 0x0 SWAP1 SLOAD SWAP1 PUSH2 0x100 EXP SWAP1 DIV PUSH20 0xFFFFFFFFFFFFFFFFFFFFFFFFFFFFFFFFFFFFFFFF AND PUSH20 0xFFFFFFFFFFFFFFFFFFFFFFFFFFFFFFFFFFFFFFFF AND EQ ISZERO PUSH2 0x7C8 JUMPI PUSH1 0x0 DUP2 DUP2 SLOAD DUP2 LT PUSH2 0x661 JUMPI PUSH2 0x660 PUSH2 0x16AA JUMP JUMPDEST JUMPDEST SWAP1 PUSH1 0x0 MSTORE PUSH1 0x20 PUSH1 0x0 KECCAK256 SWAP1 PUSH1 0x6 MUL ADD PUSH1 0x40 MLOAD DUP1 PUSH1 0xC0 ADD PUSH1 0x40 MSTORE SWAP1 DUP2 PUSH1 0x0 DUP3 ADD SLOAD DUP2 MSTORE PUSH1 0x20 ADD PUSH1 0x1 DUP3 ADD PUSH1 0x0 SWAP1 SLOAD SWAP1 PUSH2 0x100 EXP SWAP1 DIV PUSH20 0xFFFFFFFFFFFFFFFFFFFFFFFFFFFFFFFFFFFFFFFF AND PUSH20 0xFFFFFFFFFFFFFFFFFFFFFFFFFFFFFFFFFFFFFFFF AND PUSH20 0xFFFFFFFFFFFFFFFFFFFFFFFFFFFFFFFFFFFFFFFF AND DUP2 MSTORE PUSH1 0x20 ADD PUSH1 0x2 DUP3 ADD DUP1 SLOAD PUSH2 0x6EA SWAP1 PUSH2 0x1571 JUMP JUMPDEST DUP1 PUSH1 0x1F ADD PUSH1 0x20 DUP1 SWAP2 DIV MUL PUSH1 0x20 ADD PUSH1 0x40 MLOAD SWAP1 DUP2 ADD PUSH1 0x40 MSTORE DUP1 SWAP3 SWAP2 SWAP1 DUP2 DUP2 MSTORE PUSH1 0x20 ADD DUP3 DUP1 SLOAD PUSH2 0x716 SWAP1 PUSH2 0x1571 JUMP JUMPDEST DUP1 ISZERO PUSH2 0x763 JUMPI DUP1 PUSH1 0x1F LT PUSH2 0x738 JUMPI PUSH2 0x100 DUP1 DUP4 SLOAD DIV MUL DUP4 MSTORE SWAP2 PUSH1 0x20 ADD SWAP2 PUSH2 0x763 JUMP JUMPDEST DUP3 ADD SWAP2 SWAP1 PUSH1 0x0 MSTORE PUSH1 0x20 PUSH1 0x0 KECCAK256 SWAP1 JUMPDEST DUP2 SLOAD DUP2 MSTORE SWAP1 PUSH1 0x1 ADD SWAP1 PUSH1 0x20 ADD DUP1 DUP4 GT PUSH2 0x746 JUMPI DUP3 SWAP1 SUB PUSH1 0x1F AND DUP3 ADD SWAP2 JUMPDEST POP POP POP POP POP DUP2 MSTORE PUSH1 0x20 ADD PUSH1 0x3 DUP3 ADD PUSH1 0x0 SWAP1 SLOAD SWAP1 PUSH2 0x100 EXP SWAP1 DIV PUSH1 0xFF AND ISZERO ISZERO ISZERO ISZERO DUP2 MSTORE PUSH1 0x20 ADD PUSH1 0x4 DUP3 ADD SLOAD DUP2 MSTORE PUSH1 0x20 ADD PUSH1 0x5 DUP3 ADD SLOAD DUP2 MSTORE POP POP DUP4 DUP4 DUP2 MLOAD DUP2 LT PUSH2 0x7AE JUMPI PUSH2 0x7AD PUSH2 0x16AA JUMP JUMPDEST JUMPDEST PUSH1 0x20 MUL PUSH1 0x20 ADD ADD DUP2 SWAP1 MSTORE POP DUP2 DUP1 PUSH2 0x7C4 SWAP1 PUSH2 0x15D4 JUMP JUMPDEST SWAP3 POP POP JUMPDEST DUP1 DUP1 PUSH2 0x7D3 SWAP1 PUSH2 0x15D4 JUMP JUMPDEST SWAP2 POP POP PUSH2 0x5C7 JUMP JUMPDEST POP DUP2 SWAP4 POP POP POP POP SWAP1 JUMP JUMPDEST PUSH1 0x0 PUSH2 0x7F0 DUP4 PUSH2 0xA62 JUMP JUMPDEST SWAP2 POP POP DUP2 PUSH1 0x0 DUP3 DUP2 SLOAD DUP2 LT PUSH2 0x808 JUMPI PUSH2 0x807 PUSH2 0x16AA JUMP JUMPDEST JUMPDEST SWAP1 PUSH1 0x0 MSTORE PUSH1 0x20 PUSH1 0x0 KECCAK256 SWAP1 PUSH1 0x6 MUL ADD PUSH1 0x2 ADD SWAP1 DUP1 MLOAD SWAP1 PUSH1 0x20 ADD SWAP1 PUSH2 0x82C SWAP3 SWAP2 SWAP1 PUSH2 0xEE4 JUMP JUMPDEST POP TIMESTAMP PUSH1 0x0 DUP3 DUP2 SLOAD DUP2 LT PUSH2 0x842 JUMPI PUSH2 0x841 PUSH2 0x16AA JUMP JUMPDEST JUMPDEST SWAP1 PUSH1 0x0 MSTORE PUSH1 0x20 PUSH1 0x0 KECCAK256 SWAP1 PUSH1 0x6 MUL ADD PUSH1 0x5 ADD DUP2 SWAP1 SSTORE POP TIMESTAMP DUP3 PUSH1 0x40 MLOAD PUSH2 0x866 SWAP2 SWAP1 PUSH2 0x1310 JUMP JUMPDEST PUSH1 0x40 MLOAD DUP1 SWAP2 SUB SWAP1 KECCAK256 CALLER PUSH20 0xFFFFFFFFFFFFFFFFFFFFFFFFFFFFFFFFFFFFFFFF AND PUSH32 0x1BFC1050C12735E07F86D48DC958E8C1588BF60F76C6DCE9144D31BB34AD204C PUSH1 0x1 SLOAD PUSH1 0x40 MLOAD PUSH2 0x8B6 SWAP2 SWAP1 PUSH2 0x1369 JUMP JUMPDEST PUSH1 0x40 MLOAD DUP1 SWAP2 SUB SWAP1 LOG4 POP POP POP JUMP JUMPDEST PUSH1 0x0 PUSH1 0x40 MLOAD DUP1 PUSH1 0xC0 ADD PUSH1 0x40 MSTORE DUP1 PUSH1 0x1 SLOAD DUP2 MSTORE PUSH1 0x20 ADD CALLER PUSH20 0xFFFFFFFFFFFFFFFFFFFFFFFFFFFFFFFFFFFFFFFF AND DUP2 MSTORE PUSH1 0x20 ADD DUP4 DUP2 MSTORE PUSH1 0x20 ADD PUSH1 0x0 ISZERO ISZERO DUP2 MSTORE PUSH1 0x20 ADD TIMESTAMP DUP2 MSTORE PUSH1 0x20 ADD TIMESTAMP DUP2 MSTORE POP SWAP1 POP TIMESTAMP DUP3 PUSH1 0x40 MLOAD PUSH2 0x91E SWAP2 SWAP1 PUSH2 0x1310 JUMP JUMPDEST PUSH1 0x40 MLOAD DUP1 SWAP2 SUB SWAP1 KECCAK256 CALLER PUSH20 0xFFFFFFFFFFFFFFFFFFFFFFFFFFFFFFFFFFFFFFFF AND PUSH32 0xACC169AA69D74E444DD546CFB88DBF2990738E83CA82C06645B16705977C906E PUSH1 0x1 SLOAD PUSH1 0x40 MLOAD PUSH2 0x96E SWAP2 SWAP1 PUSH2 0x1369 JUMP JUMPDEST PUSH1 0x40 MLOAD DUP1 SWAP2 SUB SWAP1 LOG4 PUSH1 0x0 DUP2 SWAP1 DUP1 PUSH1 0x1 DUP2 SLOAD ADD DUP1 DUP3 SSTORE DUP1 SWAP2 POP POP PUSH1 0x1 SWAP1 SUB SWAP1 PUSH1 0x0 MSTORE PUSH1 0x20 PUSH1 0x0 KECCAK256 SWAP1 PUSH1 0x6 MUL ADD PUSH1 0x0 SWAP1 SWAP2 SWAP1 SWAP2 SWAP1 SWAP2 POP PUSH1 0x0 DUP3 ADD MLOAD DUP2 PUSH1 0x0 ADD SSTORE PUSH1 0x20 DUP3 ADD MLOAD DUP2 PUSH1 0x1 ADD PUSH1 0x0 PUSH2 0x100 EXP DUP2 SLOAD DUP2 PUSH20 0xFFFFFFFFFFFFFFFFFFFFFFFFFFFFFFFFFFFFFFFF MUL NOT AND SWAP1 DUP4 PUSH20 0xFFFFFFFFFFFFFFFFFFFFFFFFFFFFFFFFFFFFFFFF AND MUL OR SWAP1 SSTORE POP PUSH1 0x40 DUP3 ADD MLOAD DUP2 PUSH1 0x2 ADD SWAP1 DUP1 MLOAD SWAP1 PUSH1 0x20 ADD SWAP1 PUSH2 0xA0F SWAP3 SWAP2 SWAP1 PUSH2 0xEE4 JUMP JUMPDEST POP PUSH1 0x60 DUP3 ADD MLOAD DUP2 PUSH1 0x3 ADD PUSH1 0x0 PUSH2 0x100 EXP DUP2 SLOAD DUP2 PUSH1 0xFF MUL NOT AND SWAP1 DUP4 ISZERO ISZERO MUL OR SWAP1 SSTORE POP PUSH1 0x80 DUP3 ADD MLOAD DUP2 PUSH1 0x4 ADD SSTORE PUSH1 0xA0 DUP3 ADD MLOAD DUP2 PUSH1 0x5 ADD SSTORE POP POP PUSH1 0x1 PUSH1 0x0 DUP2 SLOAD DUP1 SWAP3 SWAP2 SWAP1 PUSH2 0xA59 SWAP1 PUSH2 0x15D4 JUMP JUMPDEST SWAP2 SWAP1 POP SSTORE POP POP POP JUMP JUMPDEST PUSH2 0xA6A PUSH2 0xE96 JUMP JUMPDEST PUSH1 0x0 DUP1 PUSH1 0x0 SWAP1 POP JUMPDEST PUSH1 0x0 DUP1 SLOAD SWAP1 POP DUP2 LT ISZERO PUSH2 0xD88 JUMPI PUSH1 0x0 DUP1 DUP3 DUP2 SLOAD DUP2 LT PUSH2 0xA94 JUMPI PUSH2 0xA93 PUSH2 0x16AA JUMP JUMPDEST JUMPDEST SWAP1 PUSH1 0x0 MSTORE PUSH1 0x20 PUSH1 0x0 KECCAK256 SWAP1 PUSH1 0x6 MUL ADD PUSH1 0x40 MLOAD DUP1 PUSH1 0xC0 ADD PUSH1 0x40 MSTORE SWAP1 DUP2 PUSH1 0x0 DUP3 ADD SLOAD DUP2 MSTORE PUSH1 0x20 ADD PUSH1 0x1 DUP3 ADD PUSH1 0x0 SWAP1 SLOAD SWAP1 PUSH2 0x100 EXP SWAP1 DIV PUSH20 0xFFFFFFFFFFFFFFFFFFFFFFFFFFFFFFFFFFFFFFFF AND PUSH20 0xFFFFFFFFFFFFFFFFFFFFFFFFFFFFFFFFFFFFFFFF AND PUSH20 0xFFFFFFFFFFFFFFFFFFFFFFFFFFFFFFFFFFFFFFFF AND DUP2 MSTORE PUSH1 0x20 ADD PUSH1 0x2 DUP3 ADD DUP1 SLOAD PUSH2 0xB1D SWAP1 PUSH2 0x1571 JUMP JUMPDEST DUP1 PUSH1 0x1F ADD PUSH1 0x20 DUP1 SWAP2 DIV MUL PUSH1 0x20 ADD PUSH1 0x40 MLOAD SWAP1 DUP2 ADD PUSH1 0x40 MSTORE DUP1 SWAP3 SWAP2 SWAP1 DUP2 DUP2 MSTORE PUSH1 0x20 ADD DUP3 DUP1 SLOAD PUSH2 0xB49 SWAP1 PUSH2 0x1571 JUMP JUMPDEST DUP1 ISZERO PUSH2 0xB96 JUMPI DUP1 PUSH1 0x1F LT PUSH2 0xB6B JUMPI PUSH2 0x100 DUP1 DUP4 SLOAD DIV MUL DUP4 MSTORE SWAP2 PUSH1 0x20 ADD SWAP2 PUSH2 0xB96 JUMP JUMPDEST DUP3 ADD SWAP2 SWAP1 PUSH1 0x0 MSTORE PUSH1 0x20 PUSH1 0x0 KECCAK256 SWAP1 JUMPDEST DUP2 SLOAD DUP2 MSTORE SWAP1 PUSH1 0x1 ADD SWAP1 PUSH1 0x20 ADD DUP1 DUP4 GT PUSH2 0xB79 JUMPI DUP3 SWAP1 SUB PUSH1 0x1F AND DUP3 ADD SWAP2 JUMPDEST POP POP POP POP POP DUP2 MSTORE PUSH1 0x20 ADD PUSH1 0x3 DUP3 ADD PUSH1 0x0 SWAP1 SLOAD SWAP1 PUSH2 0x100 EXP SWAP1 DIV PUSH1 0xFF AND ISZERO ISZERO ISZERO ISZERO DUP2 MSTORE PUSH1 0x20 ADD PUSH1 0x4 DUP3 ADD SLOAD DUP2 MSTORE PUSH1 0x20 ADD PUSH1 0x5 DUP3 ADD SLOAD DUP2 MSTORE POP POP SWAP1 POP DUP5 DUP2 PUSH1 0x0 ADD MLOAD EQ DUP1 ISZERO PUSH2 0xC12 JUMPI POP CALLER PUSH20 0xFFFFFFFFFFFFFFFFFFFFFFFFFFFFFFFFFFFFFFFF AND DUP2 PUSH1 0x20 ADD MLOAD PUSH20 0xFFFFFFFFFFFFFFFFFFFFFFFFFFFFFFFFFFFFFFFF AND EQ JUMPDEST ISZERO PUSH2 0xD74 JUMPI PUSH1 0x0 DUP3 DUP2 SLOAD DUP2 LT PUSH2 0xC2B JUMPI PUSH2 0xC2A PUSH2 0x16AA JUMP JUMPDEST JUMPDEST SWAP1 PUSH1 0x0 MSTORE PUSH1 0x20 PUSH1 0x0 KECCAK256 SWAP1 PUSH1 0x6 MUL ADD DUP3 DUP2 PUSH1 0x40 MLOAD DUP1 PUSH1 0xC0 ADD PUSH1 0x40 MSTORE SWAP1 DUP2 PUSH1 0x0 DUP3 ADD SLOAD DUP2 MSTORE PUSH1 0x20 ADD PUSH1 0x1 DUP3 ADD PUSH1 0x0 SWAP1 SLOAD SWAP1 PUSH2 0x100 EXP SWAP1 DIV PUSH20 0xFFFFFFFFFFFFFFFFFFFFFFFFFFFFFFFFFFFFFFFF AND PUSH20 0xFFFFFFFFFFFFFFFFFFFFFFFFFFFFFFFFFFFFFFFF AND PUSH20 0xFFFFFFFFFFFFFFFFFFFFFFFFFFFFFFFFFFFFFFFF AND DUP2 MSTORE PUSH1 0x20 ADD PUSH1 0x2 DUP3 ADD DUP1 SLOAD PUSH2 0xCB6 SWAP1 PUSH2 0x1571 JUMP JUMPDEST DUP1 PUSH1 0x1F ADD PUSH1 0x20 DUP1 SWAP2 DIV MUL PUSH1 0x20 ADD PUSH1 0x40 MLOAD SWAP1 DUP2 ADD PUSH1 0x40 MSTORE DUP1 SWAP3 SWAP2 SWAP1 DUP2 DUP2 MSTORE PUSH1 0x20 ADD DUP3 DUP1 SLOAD PUSH2 0xCE2 SWAP1 PUSH2 0x1571 JUMP JUMPDEST DUP1 ISZERO PUSH2 0xD2F JUMPI DUP1 PUSH1 0x1F LT PUSH2 0xD04 JUMPI PUSH2 0x100 DUP1 DUP4 SLOAD DIV MUL DUP4 MSTORE SWAP2 PUSH1 0x20 ADD SWAP2 PUSH2 0xD2F JUMP JUMPDEST DUP3 ADD SWAP2 SWAP1 PUSH1 0x0 MSTORE PUSH1 0x20 PUSH1 0x0 KECCAK256 SWAP1 JUMPDEST DUP2 SLOAD DUP2 MSTORE SWAP1 PUSH1 0x1 ADD SWAP1 PUSH1 0x20 ADD DUP1 DUP4 GT PUSH2 0xD12 JUMPI DUP3 SWAP1 SUB PUSH1 0x1F AND DUP3 ADD SWAP2 JUMPDEST POP POP POP POP POP DUP2 MSTORE PUSH1 0x20 ADD PUSH1 0x3 DUP3 ADD PUSH1 0x0 SWAP1 SLOAD SWAP1 PUSH2 0x100 EXP SWAP1 DIV PUSH1 0xFF AND ISZERO ISZERO ISZERO ISZERO DUP2 MSTORE PUSH1 0x20 ADD PUSH1 0x4 DUP3 ADD SLOAD DUP2 MSTORE PUSH1 0x20 ADD PUSH1 0x5 DUP3 ADD SLOAD DUP2 MSTORE POP POP SWAP2 POP SWAP4 POP SWAP4 POP POP POP PUSH2 0xDC4 JUMP JUMPDEST POP DUP1 DUP1 PUSH2 0xD80 SWAP1 PUSH2 0x15D4 JUMP JUMPDEST SWAP2 POP POP PUSH2 0xA72 JUMP JUMPDEST POP PUSH1 0x40 MLOAD PUSH32 0x8C379A000000000000000000000000000000000000000000000000000000000 DUP2 MSTORE PUSH1 0x4 ADD PUSH2 0xDBB SWAP1 PUSH2 0x1349 JUMP JUMPDEST PUSH1 0x40 MLOAD DUP1 SWAP2 SUB SWAP1 REVERT JUMPDEST SWAP2 POP SWAP2 JUMP JUMPDEST DUP3 DUP1 SLOAD PUSH2 0xDD5 SWAP1 PUSH2 0x1571 JUMP JUMPDEST SWAP1 PUSH1 0x0 MSTORE PUSH1 0x20 PUSH1 0x0 KECCAK256 SWAP1 PUSH1 0x1F ADD PUSH1 0x20 SWAP1 DIV DUP2 ADD SWAP3 DUP3 PUSH2 0xDF7 JUMPI PUSH1 0x0 DUP6 SSTORE PUSH2 0xE45 JUMP JUMPDEST DUP3 PUSH1 0x1F LT PUSH2 0xE08 JUMPI DUP1 SLOAD DUP6 SSTORE PUSH2 0xE45 JUMP JUMPDEST DUP3 DUP1 ADD PUSH1 0x1 ADD DUP6 SSTORE DUP3 ISZERO PUSH2 0xE45 JUMPI PUSH1 0x0 MSTORE PUSH1 0x20 PUSH1 0x0 KECCAK256 SWAP2 PUSH1 0x1F ADD PUSH1 0x20 SWAP1 DIV DUP3 ADD JUMPDEST DUP3 DUP2 GT ISZERO PUSH2 0xE44 JUMPI DUP3 SLOAD DUP3 SSTORE SWAP2 PUSH1 0x1 ADD SWAP2 SWAP1 PUSH1 0x1 ADD SWAP1 PUSH2 0xE29 JUMP JUMPDEST JUMPDEST POP SWAP1 POP PUSH2 0xE52 SWAP2 SWAP1 PUSH2 0xF6A JUMP JUMPDEST POP SWAP1 JUMP JUMPDEST POP DUP1 SLOAD PUSH2 0xE62 SWAP1 PUSH2 0x1571 JUMP JUMPDEST PUSH1 0x0 DUP3 SSTORE DUP1 PUSH1 0x1F LT PUSH2 0xE74 JUMPI POP PUSH2 0xE93 JUMP JUMPDEST PUSH1 0x1F ADD PUSH1 0x20 SWAP1 DIV SWAP1 PUSH1 0x0 MSTORE PUSH1 0x20 PUSH1 0x0 KECCAK256 SWAP1 DUP2 ADD SWAP1 PUSH2 0xE92 SWAP2 SWAP1 PUSH2 0xF6A JUMP JUMPDEST JUMPDEST POP JUMP JUMPDEST PUSH1 0x40 MLOAD DUP1 PUSH1 0xC0 ADD PUSH1 0x40 MSTORE DUP1 PUSH1 0x0 DUP2 MSTORE PUSH1 0x20 ADD PUSH1 0x0 PUSH20 0xFFFFFFFFFFFFFFFFFFFFFFFFFFFFFFFFFFFFFFFF AND DUP2 MSTORE PUSH1 0x20 ADD PUSH1 0x60 DUP2 MSTORE PUSH1 0x20 ADD PUSH1 0x0 ISZERO ISZERO DUP2 MSTORE PUSH1 0x20 ADD PUSH1 0x0 DUP2 MSTORE PUSH1 0x20 ADD PUSH1 0x0 DUP2 MSTORE POP SWAP1 JUMP JUMPDEST DUP3 DUP1 SLOAD PUSH2 0xEF0 SWAP1 PUSH2 0x1571 JUMP JUMPDEST SWAP1 PUSH1 0x0 MSTORE PUSH1 0x20 PUSH1 0x0 KECCAK256 SWAP1 PUSH1 0x1F ADD PUSH1 0x20 SWAP1 DIV DUP2 ADD SWAP3 DUP3 PUSH2 0xF12 JUMPI PUSH1 0x0 DUP6 SSTORE PUSH2 0xF59 JUMP JUMPDEST DUP3 PUSH1 0x1F LT PUSH2 0xF2B JUMPI DUP1 MLOAD PUSH1 0xFF NOT AND DUP4 DUP1 ADD OR DUP6 SSTORE PUSH2 0xF59 JUMP JUMPDEST DUP3 DUP1 ADD PUSH1 0x1 ADD DUP6 SSTORE DUP3 ISZERO PUSH2 0xF59 JUMPI SWAP2 DUP3 ADD JUMPDEST DUP3 DUP2 GT ISZERO PUSH2 0xF58 JUMPI DUP3 MLOAD DUP3 SSTORE SWAP2 PUSH1 0x20 ADD SWAP2 SWAP1 PUSH1 0x1 ADD SWAP1 PUSH2 0xF3D JUMP JUMPDEST JUMPDEST POP SWAP1 POP PUSH2 0xF66 SWAP2 SWAP1 PUSH2 0xF6A JUMP JUMPDEST POP SWAP1 JUMP JUMPDEST JUMPDEST DUP1 DUP3 GT ISZERO PUSH2 0xF83 JUMPI PUSH1 0x0 DUP2 PUSH1 0x0 SWAP1 SSTORE POP PUSH1 0x1 ADD PUSH2 0xF6B JUMP JUMPDEST POP SWAP1 JUMP JUMPDEST PUSH1 0x0 PUSH2 0xF9A PUSH2 0xF95 DUP5 PUSH2 0x1411 JUMP JUMPDEST PUSH2 0x13EC JUMP JUMPDEST SWAP1 POP DUP3 DUP2 MSTORE PUSH1 0x20 DUP2 ADD DUP5 DUP5 DUP5 ADD GT ISZERO PUSH2 0xFB6 JUMPI PUSH2 0xFB5 PUSH2 0x170D JUMP JUMPDEST JUMPDEST PUSH2 0xFC1 DUP5 DUP3 DUP6 PUSH2 0x152F JUMP JUMPDEST POP SWAP4 SWAP3 POP POP POP JUMP JUMPDEST PUSH1 0x0 DUP3 PUSH1 0x1F DUP4 ADD SLT PUSH2 0xFDE JUMPI PUSH2 0xFDD PUSH2 0x1708 JUMP JUMPDEST JUMPDEST DUP2 CALLDATALOAD PUSH2 0xFEE DUP5 DUP3 PUSH1 0x20 DUP7 ADD PUSH2 0xF87 JUMP JUMPDEST SWAP2 POP POP SWAP3 SWAP2 POP POP JUMP JUMPDEST PUSH1 0x0 DUP2 CALLDATALOAD SWAP1 POP PUSH2 0x1006 DUP2 PUSH2 0x1756 JUMP JUMPDEST SWAP3 SWAP2 POP POP JUMP JUMPDEST PUSH1 0x0 PUSH1 0x20 DUP3 DUP5 SUB SLT ISZERO PUSH2 0x1022 JUMPI PUSH2 0x1021 PUSH2 0x1717 JUMP JUMPDEST JUMPDEST PUSH1 0x0 DUP3 ADD CALLDATALOAD PUSH8 0xFFFFFFFFFFFFFFFF DUP2 GT ISZERO PUSH2 0x1040 JUMPI PUSH2 0x103F PUSH2 0x1712 JUMP JUMPDEST JUMPDEST PUSH2 0x104C DUP5 DUP3 DUP6 ADD PUSH2 0xFC9 JUMP JUMPDEST SWAP2 POP POP SWAP3 SWAP2 POP POP JUMP JUMPDEST PUSH1 0x0 PUSH1 0x20 DUP3 DUP5 SUB SLT ISZERO PUSH2 0x106B JUMPI PUSH2 0x106A PUSH2 0x1717 JUMP JUMPDEST JUMPDEST PUSH1 0x0 PUSH2 0x1079 DUP5 DUP3 DUP6 ADD PUSH2 0xFF7 JUMP JUMPDEST SWAP2 POP POP SWAP3 SWAP2 POP POP JUMP JUMPDEST PUSH1 0x0 DUP1 PUSH1 0x40 DUP4 DUP6 SUB SLT ISZERO PUSH2 0x1099 JUMPI PUSH2 0x1098 PUSH2 0x1717 JUMP JUMPDEST JUMPDEST PUSH1 0x0 PUSH2 0x10A7 DUP6 DUP3 DUP7 ADD PUSH2 0xFF7 JUMP JUMPDEST SWAP3 POP POP PUSH1 0x20 DUP4 ADD CALLDATALOAD PUSH8 0xFFFFFFFFFFFFFFFF DUP2 GT ISZERO PUSH2 0x10C8 JUMPI PUSH2 0x10C7 PUSH2 0x1712 JUMP JUMPDEST JUMPDEST PUSH2 0x10D4 DUP6 DUP3 DUP7 ADD PUSH2 0xFC9 JUMP JUMPDEST SWAP2 POP POP SWAP3 POP SWAP3 SWAP1 POP JUMP JUMPDEST PUSH1 0x0 PUSH2 0x10EA DUP4 DUP4 PUSH2 0x1269 JUMP JUMPDEST SWAP1 POP SWAP3 SWAP2 POP POP JUMP JUMPDEST PUSH2 0x10FB DUP2 PUSH2 0x14E7 JUMP JUMPDEST DUP3 MSTORE POP POP JUMP JUMPDEST PUSH2 0x110A DUP2 PUSH2 0x14E7 JUMP JUMPDEST DUP3 MSTORE POP POP JUMP JUMPDEST PUSH1 0x0 PUSH2 0x111B DUP3 PUSH2 0x1452 JUMP JUMPDEST PUSH2 0x1125 DUP2 DUP6 PUSH2 0x1475 JUMP JUMPDEST SWAP4 POP DUP4 PUSH1 0x20 DUP3 MUL DUP6 ADD PUSH2 0x1137 DUP6 PUSH2 0x1442 JUMP JUMPDEST DUP1 PUSH1 0x0 JUMPDEST DUP6 DUP2 LT ISZERO PUSH2 0x1173 JUMPI DUP5 DUP5 SUB DUP10 MSTORE DUP2 MLOAD PUSH2 0x1154 DUP6 DUP3 PUSH2 0x10DE JUMP JUMPDEST SWAP5 POP PUSH2 0x115F DUP4 PUSH2 0x1468 JUMP JUMPDEST SWAP3 POP PUSH1 0x20 DUP11 ADD SWAP10 POP POP PUSH1 0x1 DUP2 ADD SWAP1 POP PUSH2 0x113B JUMP JUMPDEST POP DUP3 SWAP8 POP DUP8 SWAP6 POP POP POP POP POP POP SWAP3 SWAP2 POP POP JUMP JUMPDEST PUSH2 0x118E DUP2 PUSH2 0x14F9 JUMP JUMPDEST DUP3 MSTORE POP POP JUMP JUMPDEST PUSH2 0x119D DUP2 PUSH2 0x14F9 JUMP JUMPDEST DUP3 MSTORE POP POP JUMP JUMPDEST PUSH1 0x0 PUSH2 0x11AE DUP3 PUSH2 0x145D JUMP JUMPDEST PUSH2 0x11B8 DUP2 DUP6 PUSH2 0x1486 JUMP JUMPDEST SWAP4 POP PUSH2 0x11C8 DUP2 DUP6 PUSH1 0x20 DUP7 ADD PUSH2 0x153E JUMP JUMPDEST PUSH2 0x11D1 DUP2 PUSH2 0x171C JUMP JUMPDEST DUP5 ADD SWAP2 POP POP SWAP3 SWAP2 POP POP JUMP JUMPDEST PUSH1 0x0 PUSH2 0x11E7 DUP3 PUSH2 0x145D JUMP JUMPDEST PUSH2 0x11F1 DUP2 DUP6 PUSH2 0x1497 JUMP JUMPDEST SWAP4 POP PUSH2 0x1201 DUP2 DUP6 PUSH1 0x20 DUP7 ADD PUSH2 0x153E JUMP JUMPDEST PUSH2 0x120A DUP2 PUSH2 0x171C JUMP JUMPDEST DUP5 ADD SWAP2 POP POP SWAP3 SWAP2 POP POP JUMP JUMPDEST PUSH1 0x0 PUSH2 0x1220 DUP3 PUSH2 0x145D JUMP JUMPDEST PUSH2 0x122A DUP2 DUP6 PUSH2 0x14A8 JUMP JUMPDEST SWAP4 POP PUSH2 0x123A DUP2 DUP6 PUSH1 0x20 DUP7 ADD PUSH2 0x153E JUMP JUMPDEST DUP1 DUP5 ADD SWAP2 POP POP SWAP3 SWAP2 POP POP JUMP JUMPDEST PUSH1 0x0 PUSH2 0x1253 PUSH1 0x1E DUP4 PUSH2 0x1497 JUMP JUMPDEST SWAP2 POP PUSH2 0x125E DUP3 PUSH2 0x172D JUMP JUMPDEST PUSH1 0x20 DUP3 ADD SWAP1 POP SWAP2 SWAP1 POP JUMP JUMPDEST PUSH1 0x0 PUSH1 0xC0 DUP4 ADD PUSH1 0x0 DUP4 ADD MLOAD PUSH2 0x1281 PUSH1 0x0 DUP7 ADD DUP3 PUSH2 0x12F2 JUMP JUMPDEST POP PUSH1 0x20 DUP4 ADD MLOAD PUSH2 0x1294 PUSH1 0x20 DUP7 ADD DUP3 PUSH2 0x10F2 JUMP JUMPDEST POP PUSH1 0x40 DUP4 ADD MLOAD DUP5 DUP3 SUB PUSH1 0x40 DUP7 ADD MSTORE PUSH2 0x12AC DUP3 DUP3 PUSH2 0x11A3 JUMP JUMPDEST SWAP2 POP POP PUSH1 0x60 DUP4 ADD MLOAD PUSH2 0x12C1 PUSH1 0x60 DUP7 ADD DUP3 PUSH2 0x1185 JUMP JUMPDEST POP PUSH1 0x80 DUP4 ADD MLOAD PUSH2 0x12D4 PUSH1 0x80 DUP7 ADD DUP3 PUSH2 0x12F2 JUMP JUMPDEST POP PUSH1 0xA0 DUP4 ADD MLOAD PUSH2 0x12E7 PUSH1 0xA0 DUP7 ADD DUP3 PUSH2 0x12F2 JUMP JUMPDEST POP DUP1 SWAP2 POP POP SWAP3 SWAP2 POP POP JUMP JUMPDEST PUSH2 0x12FB DUP2 PUSH2 0x1525 JUMP JUMPDEST DUP3 MSTORE POP POP JUMP JUMPDEST PUSH2 0x130A DUP2 PUSH2 0x1525 JUMP JUMPDEST DUP3 MSTORE POP POP JUMP JUMPDEST PUSH1 0x0 PUSH2 0x131C DUP3 DUP5 PUSH2 0x1215 JUMP JUMPDEST SWAP2 POP DUP2 SWAP1 POP SWAP3 SWAP2 POP POP JUMP JUMPDEST PUSH1 0x0 PUSH1 0x20 DUP3 ADD SWAP1 POP DUP2 DUP2 SUB PUSH1 0x0 DUP4 ADD MSTORE PUSH2 0x1341 DUP2 DUP5 PUSH2 0x1110 JUMP JUMPDEST SWAP1 POP SWAP3 SWAP2 POP POP JUMP JUMPDEST PUSH1 0x0 PUSH1 0x20 DUP3 ADD SWAP1 POP DUP2 DUP2 SUB PUSH1 0x0 DUP4 ADD MSTORE PUSH2 0x1362 DUP2 PUSH2 0x1246 JUMP JUMPDEST SWAP1 POP SWAP2 SWAP1 POP JUMP JUMPDEST PUSH1 0x0 PUSH1 0x20 DUP3 ADD SWAP1 POP PUSH2 0x137E PUSH1 0x0 DUP4 ADD DUP5 PUSH2 0x1301 JUMP JUMPDEST SWAP3 SWAP2 POP POP JUMP JUMPDEST PUSH1 0x0 PUSH1 0xC0 DUP3 ADD SWAP1 POP PUSH2 0x1399 PUSH1 0x0 DUP4 ADD DUP10 PUSH2 0x1301 JUMP JUMPDEST PUSH2 0x13A6 PUSH1 0x20 DUP4 ADD DUP9 PUSH2 0x1101 JUMP JUMPDEST DUP2 DUP2 SUB PUSH1 0x40 DUP4 ADD MSTORE PUSH2 0x13B8 DUP2 DUP8 PUSH2 0x11DC JUMP JUMPDEST SWAP1 POP PUSH2 0x13C7 PUSH1 0x60 DUP4 ADD DUP7 PUSH2 0x1194 JUMP JUMPDEST PUSH2 0x13D4 PUSH1 0x80 DUP4 ADD DUP6 PUSH2 0x1301 JUMP JUMPDEST PUSH2 0x13E1 PUSH1 0xA0 DUP4 ADD DUP5 PUSH2 0x1301 JUMP JUMPDEST SWAP8 SWAP7 POP POP POP POP POP POP POP JUMP JUMPDEST PUSH1 0x0 PUSH2 0x13F6 PUSH2 0x1407 JUMP JUMPDEST SWAP1 POP PUSH2 0x1402 DUP3 DUP3 PUSH2 0x15A3 JUMP JUMPDEST SWAP2 SWAP1 POP JUMP JUMPDEST PUSH1 0x0 PUSH1 0x40 MLOAD SWAP1 POP SWAP1 JUMP JUMPDEST PUSH1 0x0 PUSH8 0xFFFFFFFFFFFFFFFF DUP3 GT ISZERO PUSH2 0x142C JUMPI PUSH2 0x142B PUSH2 0x16D9 JUMP JUMPDEST JUMPDEST PUSH2 0x1435 DUP3 PUSH2 0x171C JUMP JUMPDEST SWAP1 POP PUSH1 0x20 DUP2 ADD SWAP1 POP SWAP2 SWAP1 POP JUMP JUMPDEST PUSH1 0x0 DUP2 SWAP1 POP PUSH1 0x20 DUP3 ADD SWAP1 POP SWAP2 SWAP1 POP JUMP JUMPDEST PUSH1 0x0 DUP2 MLOAD SWAP1 POP SWAP2 SWAP1 POP JUMP JUMPDEST PUSH1 0x0 DUP2 MLOAD SWAP1 POP SWAP2 SWAP1 POP JUMP JUMPDEST PUSH1 0x0 PUSH1 0x20 DUP3 ADD SWAP1 POP SWAP2 SWAP1 POP JUMP JUMPDEST PUSH1 0x0 DUP3 DUP3 MSTORE PUSH1 0x20 DUP3 ADD SWAP1 POP SWAP3 SWAP2 POP POP JUMP JUMPDEST PUSH1 0x0 DUP3 DUP3 MSTORE PUSH1 0x20 DUP3 ADD SWAP1 POP SWAP3 SWAP2 POP POP JUMP JUMPDEST PUSH1 0x0 DUP3 DUP3 MSTORE PUSH1 0x20 DUP3 ADD SWAP1 POP SWAP3 SWAP2 POP POP JUMP JUMPDEST PUSH1 0x0 DUP2 SWAP1 POP SWAP3 SWAP2 POP POP JUMP JUMPDEST PUSH1 0x0 PUSH2 0x14BE DUP3 PUSH2 0x1525 JUMP JUMPDEST SWAP2 POP PUSH2 0x14C9 DUP4 PUSH2 0x1525 JUMP JUMPDEST SWAP3 POP DUP3 DUP3 LT ISZERO PUSH2 0x14DC JUMPI PUSH2 0x14DB PUSH2 0x161D JUMP JUMPDEST JUMPDEST DUP3 DUP3 SUB SWAP1 POP SWAP3 SWAP2 POP POP JUMP JUMPDEST PUSH1 0x0 PUSH2 0x14F2 DUP3 PUSH2 0x1505 JUMP JUMPDEST SWAP1 POP SWAP2 SWAP1 POP JUMP JUMPDEST PUSH1 0x0 DUP2 ISZERO ISZERO SWAP1 POP SWAP2 SWAP1 POP JUMP JUMPDEST PUSH1 0x0 PUSH20 0xFFFFFFFFFFFFFFFFFFFFFFFFFFFFFFFFFFFFFFFF DUP3 AND SWAP1 POP SWAP2 SWAP1 POP JUMP JUMPDEST PUSH1 0x0 DUP2 SWAP1 POP SWAP2 SWAP1 POP JUMP JUMPDEST DUP3 DUP2 DUP4 CALLDATACOPY PUSH1 0x0 DUP4 DUP4 ADD MSTORE POP POP POP JUMP JUMPDEST PUSH1 0x0 JUMPDEST DUP4 DUP2 LT ISZERO PUSH2 0x155C JUMPI DUP1 DUP3 ADD MLOAD DUP2 DUP5 ADD MSTORE PUSH1 0x20 DUP2 ADD SWAP1 POP PUSH2 0x1541 JUMP JUMPDEST DUP4 DUP2 GT ISZERO PUSH2 0x156B JUMPI PUSH1 0x0 DUP5 DUP5 ADD MSTORE JUMPDEST POP POP POP POP JUMP JUMPDEST PUSH1 0x0 PUSH1 0x2 DUP3 DIV SWAP1 POP PUSH1 0x1 DUP3 AND DUP1 PUSH2 0x1589 JUMPI PUSH1 0x7F DUP3 AND SWAP2 POP JUMPDEST PUSH1 0x20 DUP3 LT DUP2 EQ ISZERO PUSH2 0x159D JUMPI PUSH2 0x159C PUSH2 0x164C JUMP JUMPDEST JUMPDEST POP SWAP2 SWAP1 POP JUMP JUMPDEST PUSH2 0x15AC DUP3 PUSH2 0x171C JUMP JUMPDEST DUP2 ADD DUP2 DUP2 LT PUSH8 0xFFFFFFFFFFFFFFFF DUP3 GT OR ISZERO PUSH2 0x15CB JUMPI PUSH2 0x15CA PUSH2 0x16D9 JUMP JUMPDEST JUMPDEST DUP1 PUSH1 0x40 MSTORE POP POP POP JUMP JUMPDEST PUSH1 0x0 PUSH2 0x15DF DUP3 PUSH2 0x1525 JUMP JUMPDEST SWAP2 POP PUSH32 0xFFFFFFFFFFFFFFFFFFFFFFFFFFFFFFFFFFFFFFFFFFFFFFFFFFFFFFFFFFFFFFFF DUP3 EQ ISZERO PUSH2 0x1612 JUMPI PUSH2 0x1611 PUSH2 0x161D JUMP JUMPDEST JUMPDEST PUSH1 0x1 DUP3 ADD SWAP1 POP SWAP2 SWAP1 POP JUMP JUMPDEST PUSH32 0x4E487B7100000000000000000000000000000000000000000000000000000000 PUSH1 0x0 MSTORE PUSH1 0x11 PUSH1 0x4 MSTORE PUSH1 0x24 PUSH1 0x0 REVERT JUMPDEST PUSH32 0x4E487B7100000000000000000000000000000000000000000000000000000000 PUSH1 0x0 MSTORE PUSH1 0x22 PUSH1 0x4 MSTORE PUSH1 0x24 PUSH1 0x0 REVERT JUMPDEST PUSH32 0x4E487B7100000000000000000000000000000000000000000000000000000000 PUSH1 0x0 MSTORE PUSH1 0x31 PUSH1 0x4 MSTORE PUSH1 0x24 PUSH1 0x0 REVERT JUMPDEST PUSH32 0x4E487B7100000000000000000000000000000000000000000000000000000000 PUSH1 0x0 MSTORE PUSH1 0x32 PUSH1 0x4 MSTORE PUSH1 0x24 PUSH1 0x0 REVERT JUMPDEST PUSH32 0x4E487B7100000000000000000000000000000000000000000000000000000000 PUSH1 0x0 MSTORE PUSH1 0x41 PUSH1 0x4 MSTORE PUSH1 0x24 PUSH1 0x0 REVERT JUMPDEST PUSH1 0x0 DUP1 REVERT JUMPDEST PUSH1 0x0 DUP1 REVERT JUMPDEST PUSH1 0x0 DUP1 REVERT JUMPDEST PUSH1 0x0 DUP1 REVERT JUMPDEST PUSH1 0x0 PUSH1 0x1F NOT PUSH1 0x1F DUP4 ADD AND SWAP1 POP SWAP2 SWAP1 POP JUMP JUMPDEST PUSH32 0x546F646F206E6F7420666F756E64206F7220756E617574686F72697A65640000 PUSH1 0x0 DUP3 ADD MSTORE POP JUMP JUMPDEST PUSH2 0x175F DUP2 PUSH2 0x1525 JUMP JUMPDEST DUP2 EQ PUSH2 0x176A JUMPI PUSH1 0x0 DUP1 REVERT JUMPDEST POP JUMP INVALID LOG2 PUSH5 0x6970667358 0x22 SLT KECCAK256 0xC2 0xF8 0xE9 0xBC PUSH29 0xE6F77EC6DB8863EDC6B9935E3FAB2C84237DE72E3AC3A4DE49E4B66473 PUSH16 0x6C634300080700330000000000000000 "
				},
				"gasEstimates": {
					"creation": {
						"codeDepositCost": "1210200",
						"executionCost": "1261",
						"totalCost": "1211461"
					},
					"external": {
						"createTodo(string)": "infinite",
						"getTodos()": "infinite",
						"removeTodo(uint256)": "infinite",
						"todos(uint256)": "infinite",
						"toggleComplete(uint256)": "infinite",
						"updateTodo(uint256,string)": "infinite"
					},
					"internal": {
						"getTodoById(uint256)": "infinite"
					}
				},
				"methodIdentifiers": {
					"createTodo(string)": "e34f1221",
					"getTodos()": "c33926cb",
					"removeTodo(uint256)": "3be3d703",
					"todos(uint256)": "bc8bc2b4",
					"toggleComplete(uint256)": "0951e5bd",
					"updateTodo(uint256,string)": "d534ee88"
				}
			},
			"storageLayout": {
				"storage": [
					{
						"astId": 46,
						"contract": "contracts/TodoList.sol:TodoList",
						"label": "todos",
						"offset": 0,
						"slot": "0",
						"type": "t_array(t_struct(Todo)14_storage)dyn_storage"
					},
					{
						"astId": 48,
						"contract": "contracts/TodoList.sol:TodoList",
						"label": "nextId",
						"offset": 0,
						"slot": "1",
						"type": "t_uint256"
					}
				],
				"types": {
					"t_address": {
						"encoding": "inplace",
						"label": "address",
						"numberOfBytes": "20"
					},
					"t_array(t_struct(Todo)14_storage)dyn_storage": {
						"base": "t_struct(Todo)14_storage",
						"encoding": "dynamic_array",
						"label": "struct TodoList.Todo[]",
						"numberOfBytes": "32"
					},
					"t_bool": {
						"encoding": "inplace",
						"label": "bool",
						"numberOfBytes": "1"
					},
					"t_string_storage": {
						"encoding": "bytes",
						"label": "string",
						"numberOfBytes": "32"
					},
					"t_struct(Todo)14_storage": {
						"encoding": "inplace",
						"label": "struct TodoList.Todo",
						"members": [
							{
								"astId": 3,
								"contract": "contracts/TodoList.sol:TodoList",
								"label": "id",
								"offset": 0,
								"slot": "0",
								"type": "t_uint256"
							},
							{
								"astId": 5,
								"contract": "contracts/TodoList.sol:TodoList",
								"label": "owner",
								"offset": 0,
								"slot": "1",
								"type": "t_address"
							},
							{
								"astId": 7,
								"contract": "contracts/TodoList.sol:TodoList",
								"label": "text",
								"offset": 0,
								"slot": "2",
								"type": "t_string_storage"
							},
							{
								"astId": 9,
								"contract": "contracts/TodoList.sol:TodoList",
								"label": "completed",
								"offset": 0,
								"slot": "3",
								"type": "t_bool"
							},
							{
								"astId": 11,
								"contract": "contracts/TodoList.sol:TodoList",
								"label": "timestamp",
								"offset": 0,
								"slot": "4",
								"type": "t_uint256"
							},
							{
								"astId": 13,
								"contract": "contracts/TodoList.sol:TodoList",
								"label": "updated",
								"offset": 0,
								"slot": "5",
								"type": "t_uint256"
							}
						],
						"numberOfBytes": "192"
					},
					"t_uint256": {
						"encoding": "inplace",
						"label": "uint256",
						"numberOfBytes": "32"
					}
				}
			},
			"userdoc": {
				"kind": "user",
				"methods": {},
				"version": 1
			}
		}
	}
}